{
  "_format": "hh-sol-artifact-1",
  "contractName": "TruPr",
  "sourceName": "contracts/TruPr.sol",
  "abi": [
    {
      "inputs": [
        {
          "internalType": "address",
          "name": "oracle",
          "type": "address"
        },
        {
          "internalType": "address[]",
          "name": "_tokenWhitelist",
          "type": "address[]"
        }
      ],
      "stateMutability": "nonpayable",
      "type": "constructor"
    },
    {
      "anonymous": false,
      "inputs": [
        {
          "indexed": true,
          "internalType": "address",
          "name": "previousOwner",
          "type": "address"
        },
        {
          "indexed": true,
          "internalType": "address",
          "name": "newOwner",
          "type": "address"
        }
      ],
      "name": "OwnershipTransferred",
      "type": "event"
    },
    {
      "anonymous": false,
      "inputs": [
        {
          "indexed": true,
          "internalType": "uint256",
          "name": "taskId",
          "type": "uint256"
        },
        {
          "indexed": true,
          "internalType": "address",
          "name": "sponsor",
          "type": "address"
        },
        {
          "indexed": true,
          "internalType": "address",
          "name": "promoter",
          "type": "address"
        }
      ],
      "name": "TaskCreated",
      "type": "event"
    },
    {
      "inputs": [],
      "name": "MaxTimeWindow",
      "outputs": [
        {
          "internalType": "uint256",
          "name": "",
          "type": "uint256"
        }
      ],
      "stateMutability": "view",
      "type": "function"
    },
    {
      "inputs": [],
      "name": "Maxcliff",
      "outputs": [
        {
          "internalType": "uint256",
          "name": "",
          "type": "uint256"
        }
      ],
      "stateMutability": "view",
      "type": "function"
    },
    {
      "inputs": [],
      "name": "PendingRevokeDelay",
      "outputs": [
        {
          "internalType": "uint256",
          "name": "",
          "type": "uint256"
        }
      ],
      "stateMutability": "view",
      "type": "function"
    },
    {
      "inputs": [],
      "name": "baseFeePerMille",
      "outputs": [
        {
          "internalType": "uint256",
          "name": "",
          "type": "uint256"
        }
      ],
      "stateMutability": "view",
      "type": "function"
    },
    {
      "inputs": [
        {
          "internalType": "uint256",
          "name": "taskId",
          "type": "uint256"
        },
        {
          "internalType": "address",
          "name": "who",
          "type": "address"
        },
        {
          "internalType": "uint256",
          "name": "score",
          "type": "uint256"
        }
      ],
      "name": "calculateRewards",
      "outputs": [
        {
          "internalType": "uint256",
          "name": "",
          "type": "uint256"
        }
      ],
      "stateMutability": "view",
      "type": "function"
    },
    {
      "inputs": [
        {
          "internalType": "uint256",
          "name": "taskId",
          "type": "uint256"
        },
        {
          "internalType": "string",
          "name": "userId",
          "type": "string"
        },
        {
          "internalType": "uint256",
          "name": "score",
          "type": "uint256"
        }
      ],
      "name": "calculateRewardsPublic",
      "outputs": [
        {
          "internalType": "uint256",
          "name": "",
          "type": "uint256"
        }
      ],
      "stateMutability": "view",
      "type": "function"
    },
    {
      "inputs": [
        {
          "internalType": "uint256",
          "name": "taskId",
          "type": "uint256"
        }
      ],
      "name": "cancelTask",
      "outputs": [],
      "stateMutability": "nonpayable",
      "type": "function"
    },
    {
      "inputs": [
        {
          "internalType": "address",
          "name": "promoter",
          "type": "address"
        },
        {
          "internalType": "address",
          "name": "erc20Token",
          "type": "address"
        },
        {
          "internalType": "uint256",
          "name": "depositAmount",
          "type": "uint256"
        },
        {
          "internalType": "uint256",
          "name": "startDate",
          "type": "uint256"
        },
        {
          "internalType": "uint256",
          "name": "endDate",
          "type": "uint256"
        },
        {
          "internalType": "uint256",
          "name": "cliff",
          "type": "uint256"
        },
        {
          "internalType": "bool",
          "name": "linearRate",
          "type": "bool"
        },
        {
          "internalType": "uint256[]",
          "name": "xticks",
          "type": "uint256[]"
        },
        {
          "internalType": "uint256[]",
          "name": "yticks",
          "type": "uint256[]"
        },
        {
          "internalType": "string",
          "name": "data",
          "type": "string"
        }
      ],
      "name": "createTask",
      "outputs": [],
      "stateMutability": "nonpayable",
      "type": "function"
    },
    {
      "inputs": [
        {
          "components": [
            {
              "internalType": "bool",
              "name": "linear",
              "type": "bool"
            },
            {
              "internalType": "uint256[]",
              "name": "x",
              "type": "uint256[]"
            },
            {
              "internalType": "uint256[]",
              "name": "y",
              "type": "uint256[]"
            }
          ],
          "internalType": "struct ScoreFnData",
          "name": "self",
          "type": "tuple"
        },
        {
          "internalType": "uint256",
          "name": "x",
          "type": "uint256"
        }
      ],
      "name": "evaluateScore",
      "outputs": [
        {
          "internalType": "uint256",
          "name": "",
          "type": "uint256"
        }
      ],
      "stateMutability": "pure",
      "type": "function"
    },
    {
      "inputs": [
        {
          "internalType": "uint256",
          "name": "taskId",
          "type": "uint256"
        },
        {
          "internalType": "string",
          "name": "userId",
          "type": "string"
        }
      ],
      "name": "fulfillPublicTask",
      "outputs": [],
      "stateMutability": "nonpayable",
      "type": "function"
    },
    {
      "inputs": [
        {
          "internalType": "bytes32",
          "name": "requestId",
          "type": "bytes32"
        },
        {
          "internalType": "uint256",
          "name": "taskId",
          "type": "uint256"
        },
        {
          "internalType": "string",
          "name": "userId",
          "type": "string"
        },
        {
          "internalType": "address",
          "name": "promoter",
          "type": "address"
        },
        {
          "internalType": "uint256",
          "name": "score",
          "type": "uint256"
        },
        {
          "internalType": "enum ResponseStatus",
          "name": "response",
          "type": "uint8"
        }
      ],
      "name": "fulfillPublicTaskCallback",
      "outputs": [],
      "stateMutability": "nonpayable",
      "type": "function"
    },
    {
      "inputs": [
        {
          "internalType": "uint256",
          "name": "taskId",
          "type": "uint256"
        }
      ],
      "name": "fulfillTask",
      "outputs": [],
      "stateMutability": "nonpayable",
      "type": "function"
    },
    {
      "inputs": [
        {
          "internalType": "bytes32",
          "name": "requestId",
          "type": "bytes32"
        },
        {
          "internalType": "uint256",
          "name": "taskId",
          "type": "uint256"
        },
        {
          "internalType": "uint256",
          "name": "score",
          "type": "uint256"
        },
        {
          "internalType": "enum ResponseStatus",
          "name": "response",
          "type": "uint8"
        }
      ],
      "name": "fulfillTaskCallback",
      "outputs": [],
      "stateMutability": "nonpayable",
      "type": "function"
    },
    {
      "inputs": [],
      "name": "getAllTaskAndState",
      "outputs": [
        {
          "components": [
            {
              "internalType": "enum Status",
              "name": "status",
              "type": "uint8"
            },
            {
              "internalType": "address",
              "name": "sponsor",
              "type": "address"
            },
            {
              "internalType": "address",
              "name": "promoter",
              "type": "address"
            },
            {
              "internalType": "address",
              "name": "erc20Token",
              "type": "address"
            },
            {
              "internalType": "uint256",
              "name": "depositAmount",
              "type": "uint256"
            },
            {
              "internalType": "uint256",
              "name": "balance",
              "type": "uint256"
            },
            {
              "internalType": "uint256",
              "name": "startDate",
              "type": "uint256"
            },
            {
              "internalType": "uint256",
              "name": "endDate",
              "type": "uint256"
            },
            {
              "internalType": "uint256",
              "name": "cliff",
              "type": "uint256"
            },
            {
              "components": [
                {
                  "internalType": "bool",
                  "name": "linear",
                  "type": "bool"
                },
                {
                  "internalType": "uint256[]",
                  "name": "x",
                  "type": "uint256[]"
                },
                {
                  "internalType": "uint256[]",
                  "name": "y",
                  "type": "uint256[]"
                }
              ],
              "internalType": "struct ScoreFnData",
              "name": "vesting",
              "type": "tuple"
            },
            {
              "internalType": "string",
              "name": "data",
              "type": "string"
            }
          ],
          "internalType": "struct Task[]",
          "name": "",
          "type": "tuple[]"
        },
        {
          "internalType": "uint256[]",
          "name": "",
          "type": "uint256[]"
        }
      ],
      "stateMutability": "view",
      "type": "function"
    },
    {
      "inputs": [],
      "name": "getAllTasks",
      "outputs": [
        {
          "components": [
            {
              "internalType": "enum Status",
              "name": "status",
              "type": "uint8"
            },
            {
              "internalType": "address",
              "name": "sponsor",
              "type": "address"
            },
            {
              "internalType": "address",
              "name": "promoter",
              "type": "address"
            },
            {
              "internalType": "address",
              "name": "erc20Token",
              "type": "address"
            },
            {
              "internalType": "uint256",
              "name": "depositAmount",
              "type": "uint256"
            },
            {
              "internalType": "uint256",
              "name": "balance",
              "type": "uint256"
            },
            {
              "internalType": "uint256",
              "name": "startDate",
              "type": "uint256"
            },
            {
              "internalType": "uint256",
              "name": "endDate",
              "type": "uint256"
            },
            {
              "internalType": "uint256",
              "name": "cliff",
              "type": "uint256"
            },
            {
              "components": [
                {
                  "internalType": "bool",
                  "name": "linear",
                  "type": "bool"
                },
                {
                  "internalType": "uint256[]",
                  "name": "x",
                  "type": "uint256[]"
                },
                {
                  "internalType": "uint256[]",
                  "name": "y",
                  "type": "uint256[]"
                }
              ],
              "internalType": "struct ScoreFnData",
              "name": "vesting",
              "type": "tuple"
            },
            {
              "internalType": "string",
              "name": "data",
              "type": "string"
            }
          ],
          "internalType": "struct Task[]",
          "name": "",
          "type": "tuple[]"
        }
      ],
      "stateMutability": "view",
      "type": "function"
    },
    {
      "inputs": [
        {
          "internalType": "uint256",
          "name": "taskId",
          "type": "uint256"
        }
      ],
      "name": "getStatus",
      "outputs": [
        {
          "internalType": "enum Status",
          "name": "",
          "type": "uint8"
        }
      ],
      "stateMutability": "view",
      "type": "function"
    },
    {
      "inputs": [
        {
          "internalType": "uint256",
          "name": "taskId",
          "type": "uint256"
        }
      ],
      "name": "isPendingRevoke",
      "outputs": [
        {
          "internalType": "bool",
          "name": "time",
          "type": "bool"
        }
      ],
      "stateMutability": "view",
      "type": "function"
    },
    {
      "inputs": [],
      "name": "owner",
      "outputs": [
        {
          "internalType": "address",
          "name": "",
          "type": "address"
        }
      ],
      "stateMutability": "view",
      "type": "function"
    },
    {
      "inputs": [
        {
          "internalType": "uint256",
          "name": "",
          "type": "uint256"
        }
      ],
      "name": "pendingRevokeTime",
      "outputs": [
        {
          "internalType": "uint256",
          "name": "",
          "type": "uint256"
        }
      ],
      "stateMutability": "view",
      "type": "function"
    },
    {
      "inputs": [],
      "name": "renounceOwnership",
      "outputs": [],
      "stateMutability": "nonpayable",
      "type": "function"
    },
    {
      "inputs": [
        {
          "internalType": "uint256",
          "name": "taskId",
          "type": "uint256"
        }
      ],
      "name": "requestRevokeTask",
      "outputs": [],
      "stateMutability": "nonpayable",
      "type": "function"
    },
    {
      "inputs": [],
      "name": "response",
      "outputs": [
        {
          "internalType": "uint64",
          "name": "",
          "type": "uint64"
        }
      ],
      "stateMutability": "view",
      "type": "function"
    },
    {
      "inputs": [
        {
          "internalType": "uint256",
          "name": "taskId",
          "type": "uint256"
        }
      ],
      "name": "revokeTask",
      "outputs": [],
      "stateMutability": "nonpayable",
      "type": "function"
    },
    {
      "inputs": [
        {
          "internalType": "bytes32",
          "name": "requestId",
          "type": "bytes32"
        },
        {
          "internalType": "uint256",
          "name": "taskId",
          "type": "uint256"
        },
        {
          "internalType": "uint256",
          "name": "score",
          "type": "uint256"
        },
        {
          "internalType": "enum ResponseStatus",
          "name": "response",
          "type": "uint8"
        }
      ],
      "name": "revokeTaskCallback",
      "outputs": [],
      "stateMutability": "nonpayable",
      "type": "function"
    },
    {
      "inputs": [],
      "name": "score",
      "outputs": [
        {
          "internalType": "uint64",
          "name": "",
          "type": "uint64"
        }
      ],
      "stateMutability": "view",
      "type": "function"
    },
    {
      "inputs": [
        {
          "internalType": "uint256",
          "name": "feePerMille",
          "type": "uint256"
        }
      ],
      "name": "setBaseFee",
      "outputs": [],
      "stateMutability": "nonpayable",
      "type": "function"
    },
    {
      "inputs": [
        {
          "internalType": "uint256",
          "name": "time",
          "type": "uint256"
        }
      ],
      "name": "setMaxTimeWindow",
      "outputs": [],
      "stateMutability": "nonpayable",
      "type": "function"
    },
    {
      "inputs": [
        {
          "internalType": "uint256",
          "name": "term",
          "type": "uint256"
        }
      ],
      "name": "setMaxcliff",
      "outputs": [],
      "stateMutability": "nonpayable",
      "type": "function"
    },
    {
      "inputs": [
        {
          "internalType": "uint256",
          "name": "delay",
          "type": "uint256"
        }
      ],
      "name": "setPendingRevokeDelay",
      "outputs": [],
      "stateMutability": "nonpayable",
      "type": "function"
    },
    {
      "inputs": [
        {
          "internalType": "address",
          "name": "token",
          "type": "address"
        },
        {
          "internalType": "bool",
          "name": "allowed",
          "type": "bool"
        }
      ],
      "name": "setTokenWhitelisted",
      "outputs": [],
      "stateMutability": "nonpayable",
      "type": "function"
    },
    {
      "inputs": [],
      "name": "taskCount",
      "outputs": [
        {
          "internalType": "uint256",
          "name": "",
          "type": "uint256"
        }
      ],
      "stateMutability": "view",
      "type": "function"
    },
    {
      "inputs": [
        {
          "internalType": "uint256",
          "name": "",
          "type": "uint256"
        }
      ],
      "name": "tasks",
      "outputs": [
        {
          "internalType": "enum Status",
          "name": "status",
          "type": "uint8"
        },
        {
          "internalType": "address",
          "name": "sponsor",
          "type": "address"
        },
        {
          "internalType": "address",
          "name": "promoter",
          "type": "address"
        },
        {
          "internalType": "address",
          "name": "erc20Token",
          "type": "address"
        },
        {
          "internalType": "uint256",
          "name": "depositAmount",
          "type": "uint256"
        },
        {
          "internalType": "uint256",
          "name": "balance",
          "type": "uint256"
        },
        {
          "internalType": "uint256",
          "name": "startDate",
          "type": "uint256"
        },
        {
          "internalType": "uint256",
          "name": "endDate",
          "type": "uint256"
        },
        {
          "internalType": "uint256",
          "name": "cliff",
          "type": "uint256"
        },
        {
          "components": [
            {
              "internalType": "bool",
              "name": "linear",
              "type": "bool"
            },
            {
              "internalType": "uint256[]",
              "name": "x",
              "type": "uint256[]"
            },
            {
              "internalType": "uint256[]",
              "name": "y",
              "type": "uint256[]"
            }
          ],
          "internalType": "struct ScoreFnData",
          "name": "vesting",
          "type": "tuple"
        },
        {
          "internalType": "string",
          "name": "data",
          "type": "string"
        }
      ],
      "stateMutability": "view",
      "type": "function"
    },
    {
      "inputs": [
        {
          "internalType": "address",
          "name": "",
          "type": "address"
        }
      ],
      "name": "tokenWhitelist",
      "outputs": [
        {
          "internalType": "bool",
          "name": "",
          "type": "bool"
        }
      ],
      "stateMutability": "view",
      "type": "function"
    },
    {
      "inputs": [
        {
          "internalType": "address",
          "name": "newOwner",
          "type": "address"
        }
      ],
      "name": "transferOwnership",
      "outputs": [],
      "stateMutability": "nonpayable",
      "type": "function"
    },
    {
      "inputs": [],
      "name": "withdraw",
      "outputs": [],
      "stateMutability": "nonpayable",
      "type": "function"
    },
    {
      "inputs": [
        {
          "internalType": "address",
          "name": "token",
          "type": "address"
        }
      ],
      "name": "withdrawToken",
      "outputs": [],
      "stateMutability": "nonpayable",
      "type": "function"
    }
  ],
  "bytecode": "0x6080604052600080546001600160801b03191681556224ea006002556303aaac006003556201518060045560326005556006553480156200003f57600080fd5b506040516200440738038062004407833981016040819052620000629162000160565b6200006d33620000f1565b60005b8151811015620000e8576001600b6000848481518110620000a157634e487b7160e01b600052603260045260246000fd5b6020908102919091018101516001600160a01b03168252810191909152604001600020805460ff191691151591909117905580620000df816200024b565b91505062000070565b50505062000289565b600180546001600160a01b038381166001600160a01b0319831681179093556040519116919082907f8be0079c531659141344cd1fd0a4f28419497f9722a3daafe3b4186f6b6457e090600090a35050565b80516001600160a01b03811681146200015b57600080fd5b919050565b6000806040838503121562000173578182fd5b6200017e8362000143565b602084810151919350906001600160401b03808211156200019d578384fd5b818601915086601f830112620001b1578384fd5b815181811115620001c657620001c662000273565b8060051b604051601f19603f83011681018181108582111715620001ee57620001ee62000273565b604052828152858101935084860182860187018b10156200020d578788fd5b8795505b838610156200023a57620002258162000143565b85526001959095019493860193860162000211565b508096505050505050509250929050565b60006000198214156200026c57634e487b7160e01b81526011600452602481fd5b5060010190565b634e487b7160e01b600052604160045260246000fd5b61416e80620002996000396000f3fe608060405234801561001057600080fd5b506004361061025c5760003560e01c806370aab8fd116101455780639653ed7e116100bd578063efedc6691161008c578063f2fde38b11610071578063f2fde38b14610542578063f4c592d314610555578063f8f156aa1461056857600080fd5b8063efedc6691461051b578063f2c804661461052f57600080fd5b80639653ed7e146104ed578063b6cb58a514610500578063b9b4ef8614610509578063c20d096c1461051257600080fd5b80637a7f01a71161011457806389476069116100f957806389476069146104955780638d977672146104a85780638da5cb5b146104d257600080fd5b80637a7f01a7146104495780637eec20a81461048257600080fd5b806370aab8fd146103f6578063715018a614610409578063753d756314610411578063779900b41461043457600080fd5b806345b7c6fc116101d85780634ed61909116101a757806352da02eb1161018c57806352da02eb146103a05780635970b5c5146103b35780635c622a0e146103c657600080fd5b80634ed619091461037a5780635217e2f01461038d57600080fd5b806345b7c6fc14610338578063465efce21461034b57806346860698146103545780634ce0a2cd1461036757600080fd5b80631bd1c2fb1161022f5780633a9c5712116102145780633a9c5712146102fd5780633ccfd60b1461031057806344cd80921461031857600080fd5b80631bd1c2fb146102d7578063250b3a01146102ea57600080fd5b8063027603b11461026157806304d88aa7146102985780630b295b59146102b95780630c7dbbe3146102c2575b600080fd5b61028361026f366004613c33565b6000908152600a6020526040902054151590565b60405190151581526020015b60405180910390f35b6102ab6102a6366004613b8c565b61057e565b60405190815260200161028f565b6102ab60055481565b6102d56102d0366004613c33565b61078d565b005b6102d56102e5366004613ad6565b6109c5565b6102ab6102f8366004613cc4565b610d18565b6102d561030b366004613a84565b610e3e565b6102d5610ec3565b6102ab610326366004613c33565b600a6020526000908152604090205481565b6102ab610346366004613c4b565b610fd4565b6102ab60035481565b6102d5610362366004613c33565b6110df565b6102d5610375366004613c33565b61118f565b6102d5610388366004613b4e565b6111ee565b6102d561039b366004613c33565b611532565b6102d56103ae366004613c33565b611591565b6102d56103c1366004613c7f565b6118fb565b6103e96103d4366004613c33565b60009081526007602052604090205460ff1690565b60405161028f9190613f23565b6102d5610404366004613c33565b611aa9565b6102d5611b08565b61028361041f366004613984565b600b6020526000908152604090205460ff1681565b61043c611b6e565b60405161028f9190613eeb565b6000546104699068010000000000000000900467ffffffffffffffff1681565b60405167ffffffffffffffff909116815260200161028f565b6102d5610490366004613c33565b611e59565b6102d56104a3366004613984565b612128565b6104bb6104b6366004613c33565b6122ba565b60405161028f9b9a99989796959493929190613f31565b6001546040516001600160a01b03909116815260200161028f565b6102d56104fb3660046139a5565b6124b7565b6102ab60065481565b6102ab60025481565b6102ab60045481565b6000546104699067ffffffffffffffff1681565b6102d561053d366004613c33565b612cd0565b6102d5610550366004613984565b6130c8565b6102d5610563366004613b4e565b6131a7565b61057061330f565b60405161028f929190613efe565b60208201518051600091906105959060019061406b565b815181106105b357634e487b7160e01b600052603260045260246000fd5b6020026020010151821061060157604083015180516105d49060019061406b565b815181106105f257634e487b7160e01b600052603260045260246000fd5b60200260200101519050610787565b60005b828460200151828151811061062957634e487b7160e01b600052603260045260246000fd5b602002602001015110156106495780610641816140e3565b915050610604565b6000811561068c57604085015161066160018461406b565b8151811061067f57634e487b7160e01b600052603260045260246000fd5b602002602001015161068f565b60005b85519091506106a15791506107879050565b6000856040015183815181106106c757634e487b7160e01b600052603260045260246000fd5b602002602001015190506000836000146107165760208701516106eb60018661406b565b8151811061070957634e487b7160e01b600052603260045260246000fd5b6020026020010151610719565b60005b905060008760200151858151811061074157634e487b7160e01b600052603260045260246000fd5b602002602001015190508181610757919061406b565b610761838961406b565b61076b908561404c565b610775919061402c565b61077f9085614014565b955050505050505b92915050565b60008181526007602052604090206001815460ff1660018111156107c157634e487b7160e01b600052602160045260246000fd5b146108065760405162461bcd60e51b815260206004820152601060248201526f3a30b9b59034b9903737ba1037b832b760811b60448201526064015b60405180910390fd5b60018101546001600160a01b031633146108625760405162461bcd60e51b815260206004820152601a60248201527f63616c6c6572206973206e6f74207468652070726f6d6f74657200000000000060448201526064016107fd565b4281600501541115801561087a575080600601544211155b6108c65760405162461bcd60e51b815260206004820152601c60248201527f6d75737420626520696e2076616c69642074696d652077696e646f770000000060448201526064016107fd565b600081600401541161091a5760405162461bcd60e51b815260206004820152601d60248201527f7461736b20686173206e6f2062616c616e63652072656d61696e696e6700000060448201526064016107fd565b6109c18282600501548360060154846007015485600b01805461093c906140ae565b80601f0160208091040260200160405190810160405280929190818152602001828054610968906140ae565b80156109b55780601f1061098a576101008083540402835291602001916109b5565b820191906000526020600020905b81548152906001019060200180831161099857829003601f168201915b50505050505050505050565b5050565b600085815260076020526040902060018101548791906001600160a01b0316156109ff57634e487b7160e01b600052600160045260246000fd5b6001815460ff166001811115610a2557634e487b7160e01b600052602160045260246000fd5b148015610a5157506001836002811115610a4f57634e487b7160e01b600052602160045260246000fd5b145b15610d0e576040805160608101825260088301805460ff16151582526009840180548451602082810282018101909652818152600095610b29959493818601939091830182828015610ac257602002820191906000526020600020905b815481526020019060010190808311610aae575b5050505050815260200160028201805480602002602001604051908101604052809291908181526020018280548015610b1a57602002820191906000526020600020905b815481526020019060010190808311610b06575b5050505050815250508661057e565b60008981526009602052604080822090519293509091610b4a908a90613ecf565b90815260200160405180910390205482610b64919061406b565b90508260040154811115610b79575060048201545b80836004016000828254610b8d919061406b565b9091555050600089815260096020526040908190209051839190610bb2908b90613ecf565b908152604051908190036020019020556005546000906103e890610bd6908461404c565b610be0919061402c565b90506000610bee828461406b565b60028601546001600160a01b03166000908152600c6020526040812080549293508492909190610c1f908490614014565b9091555050600285015460405163a9059cbb60e01b81526001600160a01b038b8116600483015260248201849052600092169063a9059cbb90604401602060405180830381600087803b158015610c7557600080fd5b505af1158015610c89573d6000803e3d6000fd5b505050506040513d601f19601f82011682018060405250810190610cad9190613aba565b905080610d085760405162461bcd60e51b8152602060048201526024808201527f455243323020546f6b656e20636f756c64206e6f74206265207472616e7366656044820152631c9c995960e21b60648201526084016107fd565b50505050505b5050505050505050565b6000838152600760209081526040808320815160608101835260088201805460ff161515825260098301805485518188028101880190965280865293958795610df795858301939192830182828015610d9057602002820191906000526020600020905b815481526020019060010190808311610d7c575b5050505050815260200160028201805480602002602001604051908101604052809291908181526020018280548015610de857602002820191906000526020600020905b815481526020019060010190808311610dd4575b5050505050815250508561057e565b90506009600087815260200190815260200160002085604051610e1a9190613ecf565b90815260200160405180910390205481610e34919061406b565b9695505050505050565b6001546001600160a01b03163314610e985760405162461bcd60e51b815260206004820181905260248201527f4f776e61626c653a2063616c6c6572206973206e6f7420746865206f776e657260448201526064016107fd565b6001600160a01b03919091166000908152600b60205260409020805460ff1916911515919091179055565b6001546001600160a01b03163314610f1d5760405162461bcd60e51b815260206004820181905260248201527f4f776e61626c653a2063616c6c6572206973206e6f7420746865206f776e657260448201526064016107fd565b6000610f316001546001600160a01b031690565b6001600160a01b03164760405160006040518083038185875af1925050503d8060008114610f7b576040519150601f19603f3d011682016040523d82523d6000602084013e610f80565b606091505b5050905080610fd15760405162461bcd60e51b815260206004820181905260248201527f62616c616e636520636f756c64206e6f74206265207472616e7366657272656460448201526064016107fd565b50565b6000838152600760209081526040808320815160608101835260088201805460ff1615158252600983018054855181880281018801909652808652939587956110af95858301939192830182828015610d905760200282019190600052602060002090815481526020019060010190808311610d7c575050505050815260200160028201805480602002602001604051908101604052809291908181526020018280548015610de85760200282019190600052602060002090815481526020019060010190808311610dd4575050505050815250508561057e565b60008781526008602090815260408083206001600160a01b038a168452909152902054909150610e34908261406b565b6001546001600160a01b031633146111395760405162461bcd60e51b815260206004820181905260248201527f4f776e61626c653a2063616c6c6572206973206e6f7420746865206f776e657260448201526064016107fd565b603281111561118a5760405162461bcd60e51b815260206004820152601c60248201527f6665652063616e6e6f74206265206c6172676572207468616e2035250000000060448201526064016107fd565b600555565b6001546001600160a01b031633146111e95760405162461bcd60e51b815260206004820181905260248201527f4f776e61626c653a2063616c6c6572206973206e6f7420746865206f776e657260448201526064016107fd565b600355565b600083815260076020526040902060018101548591906001600160a01b031661122757634e487b7160e01b600052600160045260246000fd5b6001815460ff16600181111561124d57634e487b7160e01b600052602160045260246000fd5b1480156112795750600183600281111561127757634e487b7160e01b600052602160045260246000fd5b145b1561152a576040805160608101825260088301805460ff1615158252600984018054845160208281028201810190965281815260009561134d959493818601939091830182828015610ac25760200282019190600052602060002090815481526020019060010190808311610aae575050505050815260200160028201805480602002602001604051908101604052809291908181526020018280548015610b1a5760200282019190600052602060002090815481526020019060010190808311610b06575050505050815250508661057e565b600087815260086020908152604080832060018701546001600160a01b0316845290915281205491925090611382908361406b565b90508260040154811115611397575060048201545b808360040160008282546113ab919061406b565b9091555050600087815260086020908152604080832060018701546001600160a01b0316845290915281208390556005546103e8906113ea908461404c565b6113f4919061402c565b90506000611402828461406b565b60028601546001600160a01b03166000908152600c6020526040812080549293508492909190611433908490614014565b90915550506002850154600186015460405163a9059cbb60e01b81526001600160a01b03918216600482015260248101849052600092919091169063a9059cbb90604401602060405180830381600087803b15801561149157600080fd5b505af11580156114a5573d6000803e3d6000fd5b505050506040513d601f19601f820116820180604052508101906114c99190613aba565b9050806115245760405162461bcd60e51b8152602060048201526024808201527f455243323020546f6b656e20636f756c64206e6f74206265207472616e7366656044820152631c9c995960e21b60648201526084016107fd565b50505050505b505050505050565b6001546001600160a01b0316331461158c5760405162461bcd60e51b815260206004820181905260248201527f4f776e61626c653a2063616c6c6572206973206e6f7420746865206f776e657260448201526064016107fd565b600255565b600081815260076020526040808220815161016081019092528054829060ff1660018111156115d057634e487b7160e01b600052602160045260246000fd5b60018111156115ef57634e487b7160e01b600052602160045260246000fd5b815281546001600160a01b0361010091829004811660208085019190915260018501548216604080860191909152600286015490921660608086019190915260038601546080860152600486015460a0860152600586015460c0860152600686015460e08601526007860154938501939093528151928301825260088501805460ff1615158452600986018054845181850281018501909552808552610120909601959193858401939092908301828280156116ca57602002820191906000526020600020905b8154815260200190600101908083116116b6575b505050505081526020016002820180548060200260200160405190810160405280929190818152602001828054801561172257602002820191906000526020600020905b81548152602001906001019080831161170e575b5050505050815250508152602001600b8201805461173f906140ae565b80601f016020809104026020016040519081016040528092919081815260200182805461176b906140ae565b80156117b85780601f1061178d576101008083540402835291602001916117b8565b820191906000526020600020905b81548152906001019060200180831161179b57829003601f168201915b5050505050815250509050336001600160a01b031681602001516001600160a01b0316146118285760405162461bcd60e51b815260206004820152601960248201527f63616c6c6572206973206e6f74207468652073706f6e736f720000000000000060448201526064016107fd565b60018151600181111561184b57634e487b7160e01b600052602160045260246000fd5b1461188b5760405162461bcd60e51b815260206004820152601060248201526f3a30b9b59034b9903737ba1037b832b760811b60448201526064016107fd565b6000828152600a6020526040902054156118e75760405162461bcd60e51b815260206004820152601660248201527f7265766f6b6520616c72656164792070656e64696e670000000000000000000060448201526064016107fd565b506000908152600a60205260409020429055565b60008281526007602052604090206001815460ff16600181111561192f57634e487b7160e01b600052602160045260246000fd5b1461196f5760405162461bcd60e51b815260206004820152601060248201526f3a30b9b59034b9903737ba1037b832b760811b60448201526064016107fd565b60018101546001600160a01b0316156119ca5760405162461bcd60e51b815260206004820152601260248201527f7461736b206973206e6f74207075626c6963000000000000000000000000000060448201526064016107fd565b428160050154111580156119e2575080600601544211155b611a2e5760405162461bcd60e51b815260206004820152601c60248201527f6d75737420626520696e2076616c69642074696d652077696e646f770000000060448201526064016107fd565b6000816004015411611a825760405162461bcd60e51b815260206004820152601d60248201527f7461736b20686173206e6f2062616c616e63652072656d61696e696e6700000060448201526064016107fd565b611aa48382600501548360060154846007015485600b01805461093c906140ae565b505050565b6001546001600160a01b03163314611b035760405162461bcd60e51b815260206004820181905260248201527f4f776e61626c653a2063616c6c6572206973206e6f7420746865206f776e657260448201526064016107fd565b600455565b6001546001600160a01b03163314611b625760405162461bcd60e51b815260206004820181905260248201527f4f776e61626c653a2063616c6c6572206973206e6f7420746865206f776e657260448201526064016107fd565b611b6c6000613694565b565b6060600060065467ffffffffffffffff811115611b9b57634e487b7160e01b600052604160045260246000fd5b604051908082528060200260200182016040528015611bd457816020015b611bc16136f3565b815260200190600190039081611bb95790505b50905060005b600654811015611e535760008181526007602052604090819020815161016081019092528054829060ff166001811115611c2457634e487b7160e01b600052602160045260246000fd5b6001811115611c4357634e487b7160e01b600052602160045260246000fd5b815281546001600160a01b0361010091829004811660208085019190915260018501548216604080860191909152600286015490921660608086019190915260038601546080860152600486015460a0860152600586015460c0860152600686015460e08601526007860154938501939093528151928301825260088501805460ff161515845260098601805484518185028101850190955280855261012090960195919385840193909290830182828015611d1e57602002820191906000526020600020905b815481526020019060010190808311611d0a575b5050505050815260200160028201805480602002602001604051908101604052809291908181526020018280548015611d7657602002820191906000526020600020905b815481526020019060010190808311611d62575b5050505050815250508152602001600b82018054611d93906140ae565b80601f0160208091040260200160405190810160405280929190818152602001828054611dbf906140ae565b8015611e0c5780601f10611de157610100808354040283529160200191611e0c565b820191906000526020600020905b815481529060010190602001808311611def57829003601f168201915b505050505081525050828281518110611e3557634e487b7160e01b600052603260045260246000fd5b60200260200101819052508080611e4b906140e3565b915050611bda565b50919050565b60008181526007602052604090206001815460ff166001811115611e8d57634e487b7160e01b600052602160045260246000fd5b14611ecd5760405162461bcd60e51b815260206004820152601060248201526f3a30b9b59034b9903737ba1037b832b760811b60448201526064016107fd565b805461010090046001600160a01b0316331480611ef6575060018101546001600160a01b031633145b611f685760405162461bcd60e51b815260206004820152602260248201527f63616c6c6572206d7573742062652073706f6e736f72206f722070726f6d6f7460448201527f657200000000000000000000000000000000000000000000000000000000000060648201526084016107fd565b805461010090046001600160a01b0316331415612021578060050154421080611fb057504260045482600701548360060154611fa49190614014565b611fae9190614014565b105b6120215760405162461bcd60e51b8152602060048201526024808201527f6d75737420626520696e2076616c69642063616e63656c6c6174696f6e20706560448201527f72696f640000000000000000000000000000000000000000000000000000000060648201526084016107fd565b60048181018054600091829055835460ff1916808555600285015460405163a9059cbb60e01b81526001600160a01b0361010090930483169581019590955260248501839052919391169063a9059cbb90604401602060405180830381600087803b15801561208f57600080fd5b505af11580156120a3573d6000803e3d6000fd5b505050506040513d601f19601f820116820180604052508101906120c79190613aba565b9050806121225760405162461bcd60e51b8152602060048201526024808201527f455243323020546f6b656e20636f756c64206e6f74206265207472616e7366656044820152631c9c995960e21b60648201526084016107fd565b50505050565b6001546001600160a01b031633146121825760405162461bcd60e51b815260206004820181905260248201527f4f776e61626c653a2063616c6c6572206973206e6f7420746865206f776e657260448201526064016107fd565b6001600160a01b0381166000818152600c602052604081208190559063a9059cbb6121b56001546001600160a01b031690565b6001600160a01b038581166000908152600c60205260409081902054905160e085901b7fffffffff000000000000000000000000000000000000000000000000000000001681529290911660048301526024820152604401602060405180830381600087803b15801561222757600080fd5b505af115801561223b573d6000803e3d6000fd5b505050506040513d601f19601f8201168201806040525081019061225f9190613aba565b9050806109c15760405162461bcd60e51b8152602060048201526024808201527f455243323020546f6b656e20636f756c64206e6f74206265207472616e7366656044820152631c9c995960e21b60648201526084016107fd565b60076020528060005260406000206000915090508060000160009054906101000a900460ff16908060000160019054906101000a90046001600160a01b0316908060010160009054906101000a90046001600160a01b0316908060020160009054906101000a90046001600160a01b031690806003015490806004015490806005015490806006015490806007015490806008016040518060600160405290816000820160009054906101000a900460ff16151515158152602001600182018054806020026020016040519081016040528092919081815260200182805480156123c357602002820191906000526020600020905b8154815260200190600101908083116123af575b505050505081526020016002820180548060200260200160405190810160405280929190818152602001828054801561241b57602002820191906000526020600020905b815481526020019060010190808311612407575b5050505050815250509080600b018054612434906140ae565b80601f0160208091040260200160405190810160405280929190818152602001828054612460906140ae565b80156124ad5780601f10612482576101008083540402835291602001916124ad565b820191906000526020600020905b81548152906001019060200180831161249057829003601f168201915b505050505090508b565b85421080156124c557508587105b80156124dc57506003546124d9888861406b565b11155b6125285760405162461bcd60e51b815260206004820152601860248201527f696e76616c69642074696d65206672616d6520676976656e000000000000000060448201526064016107fd565b6002548511156125a05760405162461bcd60e51b815260206004820152602360248201527f636c6966662063616e6e6f74206265206c6f6e676572207468616e203238206460448201527f617973000000000000000000000000000000000000000000000000000000000060648201526084016107fd565b6001600160a01b0389166000908152600b602052604090205460ff166126085760405162461bcd60e51b815260206004820152601860248201527f746f6b656e206973206e6f742077686974656c6973746564000000000000000060448201526064016107fd565b600088116126585760405162461bcd60e51b815260206004820152601960248201527f6465706f736974416d6f756e742063616e6e6f7420626520300000000000000060448201526064016107fd565b6001600160a01b038a163314156126b15760405162461bcd60e51b815260206004820152601960248201527f70726f6d6f7465722063616e6e6f742062652073656e6465720000000000000060448201526064016107fd565b81518351146127025760405162461bcd60e51b815260206004820152601b60248201527f7469636b73206d75737420686176652073616d65206c656e677468000000000060448201526064016107fd565b6001600160a01b038a166127bf57878260018451612720919061406b565b8151811061273e57634e487b7160e01b600052603260045260246000fd5b602002602001015111156127ba5760405162461bcd60e51b815260206004820152603160248201527f746f74616c207061796f75742063616e6e6f742062652067726561746572207460448201527f68616e206465706f736974416d6f756e7400000000000000000000000000000060648201526084016107fd565b612842565b8782600184516127cf919061406b565b815181106127ed57634e487b7160e01b600052603260045260246000fd5b6020026020010151146128425760405162461bcd60e51b815260206004820152601960248201527f6d75737420656e6420776974682066756c6c20616d6f756e740000000000000060448201526064016107fd565b60018351111561297a5760015b83518110156129785783818151811061287857634e487b7160e01b600052603260045260246000fd5b60200260200101518460018361288e919061406b565b815181106128ac57634e487b7160e01b600052603260045260246000fd5b602002602001015110801561291a57508281815181106128dc57634e487b7160e01b600052603260045260246000fd5b6020026020010151836001836128f2919061406b565b8151811061291057634e487b7160e01b600052603260045260246000fd5b6020026020010151105b6129665760405162461bcd60e51b815260206004820152601860248201527f7469636b73206d75737420626520696e6372656173696e67000000000000000060448201526064016107fd565b80612970816140e3565b91505061284f565b505b6040517f23b872dd000000000000000000000000000000000000000000000000000000008152336004820152306024820152604481018990526000906001600160a01b038b16906323b872dd90606401602060405180830381600087803b1580156129e457600080fd5b505af11580156129f8573d6000803e3d6000fd5b505050506040513d601f19601f82011682018060405250810190612a1c9190613aba565b905080612a775760405162461bcd60e51b8152602060048201526024808201527f455243323020546f6b656e20636f756c64206e6f74206265207472616e7366656044820152631c9c995960e21b60648201526084016107fd565b6006805460009182612a88836140e3565b9091555060408051606081018252881515815260208101889052808201879052815161016081019092529192508060018152602001336001600160a01b031681526020018e6001600160a01b031681526020018d6001600160a01b031681526020018c81526020018c81526020018b81526020018a8152602001898152602001828152602001858152506007600084815260200190815260200160002060008201518160000160006101000a81548160ff02191690836001811115612b5d57634e487b7160e01b600052602160045260246000fd5b021790555060208281015182546001600160a01b039182166101009081027fffffffffffffffffffffff0000000000000000000000000000000000000000ff909216919091178455604085015160018501805491841673ffffffffffffffffffffffffffffffffffffffff199283161790556060860151600286018054919094169116179091556080840151600384015560a0840151600484015560c0840151600584015560e084015160068401558301516007830155610120830151805160088401805491151560ff1990921691909117815581830151805192939192612c4b926009870192019061378d565b5060408201518051612c6791600284019160209091019061378d565b5050506101408201518051612c8691600b8401916020909101906137d8565b50506040516001600160a01b038f169150339084907f2454c22dc684ff5512045882a113101049fde511c581e351116949e9a2ed763790600090a450505050505050505050505050565b600081815260076020526040808220815161016081019092528054829060ff166001811115612d0f57634e487b7160e01b600052602160045260246000fd5b6001811115612d2e57634e487b7160e01b600052602160045260246000fd5b815281546001600160a01b0361010091829004811660208085019190915260018501548216604080860191909152600286015490921660608086019190915260038601546080860152600486015460a0860152600586015460c0860152600686015460e08601526007860154938501939093528151928301825260088501805460ff161515845260098601805484518185028101850190955280855261012090960195919385840193909290830182828015612e0957602002820191906000526020600020905b815481526020019060010190808311612df5575b5050505050815260200160028201805480602002602001604051908101604052809291908181526020018280548015612e6157602002820191906000526020600020905b815481526020019060010190808311612e4d575b5050505050815250508152602001600b82018054612e7e906140ae565b80601f0160208091040260200160405190810160405280929190818152602001828054612eaa906140ae565b8015612ef75780601f10612ecc57610100808354040283529160200191612ef7565b820191906000526020600020905b815481529060010190602001808311612eda57829003601f168201915b5050505050815250509050336001600160a01b031681602001516001600160a01b031614612f675760405162461bcd60e51b815260206004820152601960248201527f63616c6c6572206973206e6f74207468652073706f6e736f720000000000000060448201526064016107fd565b600181516001811115612f8a57634e487b7160e01b600052602160045260246000fd5b14612fca5760405162461bcd60e51b815260206004820152601060248201526f3a30b9b59034b9903737ba1037b832b760811b60448201526064016107fd565b6000828152600a60205260409020546130255760405162461bcd60e51b815260206004820152601660248201527f7265766f6b65206d7573742062652070656e64696e670000000000000000000060448201526064016107fd565b6004546000838152600a6020526040902054429161304291614014565b11156130b65760405162461bcd60e51b815260206004820152602260248201527f6d757374207761697420666f72207265766f6b652064656c617920746f20706160448201527f737300000000000000000000000000000000000000000000000000000000000060648201526084016107fd565b506000908152600a6020526040812055565b6001546001600160a01b031633146131225760405162461bcd60e51b815260206004820181905260248201527f4f776e61626c653a2063616c6c6572206973206e6f7420746865206f776e657260448201526064016107fd565b6001600160a01b03811661319e5760405162461bcd60e51b815260206004820152602660248201527f4f776e61626c653a206e6577206f776e657220697320746865207a65726f206160448201527f646472657373000000000000000000000000000000000000000000000000000060648201526084016107fd565b610fd181613694565b600083815260076020526040902084906001815460ff1660018111156131dd57634e487b7160e01b600052602160045260246000fd5b1480156132095750600083600281111561320757634e487b7160e01b600052602160045260246000fd5b145b1561152a5760048181018054600091829055835460ff1916808555600285015460405163a9059cbb60e01b81526001600160a01b0361010090930483169581019590955260248501839052919391169063a9059cbb90604401602060405180830381600087803b15801561327c57600080fd5b505af1158015613290573d6000803e3d6000fd5b505050506040513d601f19601f820116820180604052508101906132b49190613aba565b905080610d0e5760405162461bcd60e51b8152602060048201526024808201527f455243323020546f6b656e20636f756c64206e6f74206265207472616e7366656044820152631c9c995960e21b60648201526084016107fd565b606080600060065467ffffffffffffffff81111561333d57634e487b7160e01b600052604160045260246000fd5b60405190808252806020026020018201604052801561337657816020015b6133636136f3565b81526020019060019003908161335b5790505b509050600060065467ffffffffffffffff8111156133a457634e487b7160e01b600052604160045260246000fd5b6040519080825280602002602001820160405280156133cd578160200160208202803683370190505b50905060005b60065481101561368a5760008181526007602052604090819020815161016081019092528054829060ff16600181111561341d57634e487b7160e01b600052602160045260246000fd5b600181111561343c57634e487b7160e01b600052602160045260246000fd5b815281546001600160a01b0361010091829004811660208085019190915260018501548216604080860191909152600286015490921660608086019190915260038601546080860152600486015460a0860152600586015460c0860152600686015460e08601526007860154938501939093528151928301825260088501805460ff16151584526009860180548451818502810185019095528085526101209096019591938584019390929083018282801561351757602002820191906000526020600020905b815481526020019060010190808311613503575b505050505081526020016002820180548060200260200160405190810160405280929190818152602001828054801561356f57602002820191906000526020600020905b81548152602001906001019080831161355b575b5050505050815250508152602001600b8201805461358c906140ae565b80601f01602080910402602001604051908101604052809291908181526020018280546135b8906140ae565b80156136055780601f106135da57610100808354040283529160200191613605565b820191906000526020600020905b8154815290600101906020018083116135e857829003601f168201915b50505050508152505083828151811061362e57634e487b7160e01b600052603260045260246000fd5b6020026020010181905250600a60008281526020019081526020016000205482828151811061366d57634e487b7160e01b600052603260045260246000fd5b602090810291909101015280613682816140e3565b9150506133d3565b5090939092509050565b600180546001600160a01b0383811673ffffffffffffffffffffffffffffffffffffffff19831681179093556040519116919082907f8be0079c531659141344cd1fd0a4f28419497f9722a3daafe3b4186f6b6457e090600090a35050565b604080516101608101909152806000815260200160006001600160a01b0316815260200160006001600160a01b0316815260200160006001600160a01b031681526020016000815260200160008152602001600081526020016000815260200160008152602001613780604051806060016040528060001515815260200160608152602001606081525090565b8152602001606081525090565b8280548282559060005260206000209081019282156137c8579160200282015b828111156137c85782518255916020019190600101906137ad565b506137d492915061384b565b5090565b8280546137e4906140ae565b90600052602060002090601f01602090048101928261380657600085556137c8565b82601f1061381f57805160ff19168380011785556137c8565b828001600101855582156137c857918201828111156137c85782518255916020019190600101906137ad565b5b808211156137d4576000815560010161384c565b80356001600160a01b038116811461387757600080fd5b919050565b600082601f83011261388c578081fd5b8135602067ffffffffffffffff8211156138a8576138a8614114565b8160051b6138b7828201613fe3565b8381528281019086840183880185018910156138d1578687fd5b8693505b858410156138f35780358352600193909301929184019184016138d5565b50979650505050505050565b80356138778161412a565b80356003811061387757600080fd5b600082601f830112613929578081fd5b813567ffffffffffffffff81111561394357613943614114565b613956601f8201601f1916602001613fe3565b81815284602083860101111561396a578283fd5b816020850160208301379081016020019190915292915050565b600060208284031215613995578081fd5b61399e82613860565b9392505050565b6000806000806000806000806000806101408b8d0312156139c4578586fd5b6139cd8b613860565b99506139db60208c01613860565b985060408b0135975060608b0135965060808b0135955060a08b01359450613a0560c08c016138ff565b935060e08b013567ffffffffffffffff80821115613a21578485fd5b613a2d8e838f0161387c565b94506101008d0135915080821115613a43578384fd5b613a4f8e838f0161387c565b93506101208d0135915080821115613a65578283fd5b50613a728d828e01613919565b9150509295989b9194979a5092959850565b60008060408385031215613a96578182fd5b613a9f83613860565b91506020830135613aaf8161412a565b809150509250929050565b600060208284031215613acb578081fd5b815161399e8161412a565b60008060008060008060c08789031215613aee578182fd5b8635955060208701359450604087013567ffffffffffffffff811115613b12578283fd5b613b1e89828a01613919565b945050613b2d60608801613860565b925060808701359150613b4260a0880161390a565b90509295509295509295565b60008060008060808587031215613b63578384fd5b843593506020850135925060408501359150613b816060860161390a565b905092959194509250565b60008060408385031215613b9e578182fd5b823567ffffffffffffffff80821115613bb5578384fd5b9084019060608287031215613bc8578384fd5b613bd0613fba565b8235613bdb8161412a565b8152602083013582811115613bee578586fd5b613bfa8882860161387c565b602083015250604083013582811115613c11578586fd5b613c1d8882860161387c565b6040830152509660209590950135955050505050565b600060208284031215613c44578081fd5b5035919050565b600080600060608486031215613c5f578283fd5b83359250613c6f60208501613860565b9150604084013590509250925092565b60008060408385031215613c91578182fd5b82359150602083013567ffffffffffffffff811115613cae578182fd5b613cba85828601613919565b9150509250929050565b600080600060608486031215613cd8578081fd5b83359250602084013567ffffffffffffffff811115613cf5578182fd5b613d0186828701613919565b925050604084013590509250925092565b600081518084526020808501808196508360051b81019150828601855b85811015613df75782840389528151610160613d4c868351613e3e565b868201516001600160a01b0390811687890152604080840151821690880152606080840151909116908701526080808301519087015260a0808301519087015260c0808301519087015260e08083015190870152610100808301519087015261012080830151818801839052613dc483890182613e8c565b925050506101408083015192508682038188015250613de38183613e60565b9a87019a9550505090840190600101613d2f565b5091979650505050505050565b6000815180845260208085019450808401835b83811015613e3357815187529582019590820190600101613e17565b509495945050505050565b60028110613e5c57634e487b7160e01b600052602160045260246000fd5b9052565b60008151808452613e78816020860160208601614082565b601f01601f19169290920160200192915050565b8051151582526000602082015160606020850152613ead6060850182613e04565b905060408301518482036040860152613ec68282613e04565b95945050505050565b60008251613ee1818460208701614082565b9190910192915050565b60208152600061399e6020830184613d12565b604081526000613f116040830185613d12565b8281036020840152613ec68185613e04565b602081016107878284613e3e565b6000610160613f40838f613e3e565b6001600160a01b03808e166020850152808d166040850152808c166060850152508960808401528860a08401528760c08401528660e08401528561010084015280610120840152613f9381840186613e8c565b9050828103610140840152613fa88185613e60565b9e9d5050505050505050505050505050565b6040516060810167ffffffffffffffff81118282101715613fdd57613fdd614114565b60405290565b604051601f8201601f1916810167ffffffffffffffff8111828210171561400c5761400c614114565b604052919050565b60008219821115614027576140276140fe565b500190565b60008261404757634e487b7160e01b81526012600452602481fd5b500490565b6000816000190483118215151615614066576140666140fe565b500290565b60008282101561407d5761407d6140fe565b500390565b60005b8381101561409d578181015183820152602001614085565b838111156121225750506000910152565b600181811c908216806140c257607f821691505b60208210811415611e5357634e487b7160e01b600052602260045260246000fd5b60006000198214156140f7576140f76140fe565b5060010190565b634e487b7160e01b600052601160045260246000fd5b634e487b7160e01b600052604160045260246000fd5b8015158114610fd157600080fdfea264697066735822122044f461f9a4a51d9805834efd8f24350d6c467506a0eeea00ed96a62885c2cccb64736f6c63430008040033",
  "linkReferences": {},
  "deployedLinkReferences": {}
}