{
  "_format": "hh-sol-artifact-1",
  "contractName": "TruPr",
  "sourceName": "contracts/TruPr.sol",
  "abi": [
    {
      "inputs": [
        {
          "internalType": "address",
          "name": "oracle",
          "type": "address"
        },
        {
          "internalType": "address[]",
          "name": "_tokenWhitelist",
          "type": "address[]"
        }
      ],
      "stateMutability": "nonpayable",
      "type": "constructor"
    },
    {
      "anonymous": false,
      "inputs": [
        {
          "indexed": true,
          "internalType": "bytes32",
          "name": "id",
          "type": "bytes32"
        }
      ],
      "name": "ChainlinkCancelled",
      "type": "event"
    },
    {
      "anonymous": false,
      "inputs": [
        {
          "indexed": true,
          "internalType": "bytes32",
          "name": "id",
          "type": "bytes32"
        }
      ],
      "name": "ChainlinkFulfilled",
      "type": "event"
    },
    {
      "anonymous": false,
      "inputs": [
        {
          "indexed": true,
          "internalType": "bytes32",
          "name": "id",
          "type": "bytes32"
        }
      ],
      "name": "ChainlinkRequested",
      "type": "event"
    },
    {
      "anonymous": false,
      "inputs": [
        {
          "indexed": true,
          "internalType": "address",
          "name": "previousOwner",
          "type": "address"
        },
        {
          "indexed": true,
          "internalType": "address",
          "name": "newOwner",
          "type": "address"
        }
      ],
      "name": "OwnershipTransferred",
      "type": "event"
    },
    {
      "anonymous": false,
      "inputs": [
        {
          "indexed": true,
          "internalType": "uint256",
          "name": "taskId",
          "type": "uint256"
        },
        {
          "indexed": true,
          "internalType": "address",
          "name": "sponsor",
          "type": "address"
        },
        {
          "indexed": true,
          "internalType": "address",
          "name": "promoter",
          "type": "address"
        }
      ],
      "name": "TaskCreated",
      "type": "event"
    },
    {
      "inputs": [],
      "name": "MaxTimeWindow",
      "outputs": [
        {
          "internalType": "uint256",
          "name": "",
          "type": "uint256"
        }
      ],
      "stateMutability": "view",
      "type": "function"
    },
    {
      "inputs": [],
      "name": "Maxcliff",
      "outputs": [
        {
          "internalType": "uint256",
          "name": "",
          "type": "uint256"
        }
      ],
      "stateMutability": "view",
      "type": "function"
    },
    {
      "inputs": [],
      "name": "PendingRevokeDelay",
      "outputs": [
        {
          "internalType": "uint256",
          "name": "",
          "type": "uint256"
        }
      ],
      "stateMutability": "view",
      "type": "function"
    },
    {
      "inputs": [
        {
          "internalType": "address",
          "name": "_address",
          "type": "address"
        }
      ],
      "name": "addressToString",
      "outputs": [
        {
          "internalType": "string",
          "name": "",
          "type": "string"
        }
      ],
      "stateMutability": "pure",
      "type": "function"
    },
    {
      "inputs": [],
      "name": "baseFeePerMille",
      "outputs": [
        {
          "internalType": "uint256",
          "name": "",
          "type": "uint256"
        }
      ],
      "stateMutability": "view",
      "type": "function"
    },
    {
      "inputs": [
        {
          "internalType": "uint256",
          "name": "taskId",
          "type": "uint256"
        },
        {
          "internalType": "address",
          "name": "who",
          "type": "address"
        },
        {
          "internalType": "uint256",
          "name": "score",
          "type": "uint256"
        }
      ],
      "name": "calculateRewards",
      "outputs": [
        {
          "internalType": "uint256",
          "name": "",
          "type": "uint256"
        }
      ],
      "stateMutability": "view",
      "type": "function"
    },
    {
      "inputs": [
        {
          "internalType": "uint256",
          "name": "taskId",
          "type": "uint256"
        }
      ],
      "name": "cancelTask",
      "outputs": [],
      "stateMutability": "nonpayable",
      "type": "function"
    },
    {
      "inputs": [
        {
          "internalType": "address",
          "name": "promoter",
          "type": "address"
        },
        {
          "internalType": "address",
          "name": "erc20Token",
          "type": "address"
        },
        {
          "internalType": "uint256",
          "name": "depositAmount",
          "type": "uint256"
        },
        {
          "internalType": "uint256",
          "name": "startDate",
          "type": "uint256"
        },
        {
          "internalType": "uint256",
          "name": "endDate",
          "type": "uint256"
        },
        {
          "internalType": "uint256",
          "name": "cliff",
          "type": "uint256"
        },
        {
          "internalType": "bool",
          "name": "linearRate",
          "type": "bool"
        },
        {
          "internalType": "uint256[]",
          "name": "xticks",
          "type": "uint256[]"
        },
        {
          "internalType": "uint256[]",
          "name": "yticks",
          "type": "uint256[]"
        },
        {
          "internalType": "string",
          "name": "data",
          "type": "string"
        }
      ],
      "name": "createTask",
      "outputs": [],
      "stateMutability": "nonpayable",
      "type": "function"
    },
    {
      "inputs": [
        {
          "components": [
            {
              "internalType": "bool",
              "name": "linear",
              "type": "bool"
            },
            {
              "internalType": "uint256[]",
              "name": "x",
              "type": "uint256[]"
            },
            {
              "internalType": "uint256[]",
              "name": "y",
              "type": "uint256[]"
            }
          ],
          "internalType": "struct ScoreFnData",
          "name": "self",
          "type": "tuple"
        },
        {
          "internalType": "uint256",
          "name": "x",
          "type": "uint256"
        }
      ],
      "name": "evaluateScore",
      "outputs": [
        {
          "internalType": "uint256",
          "name": "",
          "type": "uint256"
        }
      ],
      "stateMutability": "pure",
      "type": "function"
    },
    {
      "inputs": [
        {
          "internalType": "uint256",
          "name": "taskId",
          "type": "uint256"
        }
      ],
      "name": "fulfillTask",
      "outputs": [],
      "stateMutability": "nonpayable",
      "type": "function"
    },
    {
      "inputs": [
        {
          "internalType": "bytes32",
          "name": "requestId",
          "type": "bytes32"
        },
        {
          "internalType": "uint256",
          "name": "taskId",
          "type": "uint256"
        },
        {
          "internalType": "uint256",
          "name": "score",
          "type": "uint256"
        },
        {
          "internalType": "enum ResponseStatus",
          "name": "response",
          "type": "uint8"
        }
      ],
      "name": "fulfillTaskCallback",
      "outputs": [],
      "stateMutability": "nonpayable",
      "type": "function"
    },
    {
      "inputs": [
        {
          "internalType": "bytes32",
          "name": "requestId",
          "type": "bytes32"
        },
        {
          "internalType": "uint256",
          "name": "taskId",
          "type": "uint256"
        },
        {
          "internalType": "string",
          "name": "userId",
          "type": "string"
        },
        {
          "internalType": "uint256",
          "name": "score",
          "type": "uint256"
        },
        {
          "internalType": "enum ResponseStatus",
          "name": "response",
          "type": "uint8"
        }
      ],
      "name": "fulfillTaskCallbackPublic",
      "outputs": [],
      "stateMutability": "nonpayable",
      "type": "function"
    },
    {
      "inputs": [
        {
          "internalType": "uint256",
          "name": "taskId",
          "type": "uint256"
        },
        {
          "internalType": "string",
          "name": "userId",
          "type": "string"
        }
      ],
      "name": "fulfillTaskPublic",
      "outputs": [],
      "stateMutability": "nonpayable",
      "type": "function"
    },
    {
      "inputs": [],
      "name": "getAllTaskAndState",
      "outputs": [
        {
          "components": [
            {
              "internalType": "enum Status",
              "name": "status",
              "type": "uint8"
            },
            {
              "internalType": "address",
              "name": "sponsor",
              "type": "address"
            },
            {
              "internalType": "address",
              "name": "promoter",
              "type": "address"
            },
            {
              "internalType": "address",
              "name": "erc20Token",
              "type": "address"
            },
            {
              "internalType": "uint256",
              "name": "depositAmount",
              "type": "uint256"
            },
            {
              "internalType": "uint256",
              "name": "balance",
              "type": "uint256"
            },
            {
              "internalType": "uint256",
              "name": "startDate",
              "type": "uint256"
            },
            {
              "internalType": "uint256",
              "name": "endDate",
              "type": "uint256"
            },
            {
              "internalType": "uint256",
              "name": "cliff",
              "type": "uint256"
            },
            {
              "components": [
                {
                  "internalType": "bool",
                  "name": "linear",
                  "type": "bool"
                },
                {
                  "internalType": "uint256[]",
                  "name": "x",
                  "type": "uint256[]"
                },
                {
                  "internalType": "uint256[]",
                  "name": "y",
                  "type": "uint256[]"
                }
              ],
              "internalType": "struct ScoreFnData",
              "name": "vesting",
              "type": "tuple"
            },
            {
              "internalType": "string",
              "name": "data",
              "type": "string"
            }
          ],
          "internalType": "struct Task[]",
          "name": "",
          "type": "tuple[]"
        },
        {
          "internalType": "uint256[]",
          "name": "",
          "type": "uint256[]"
        }
      ],
      "stateMutability": "view",
      "type": "function"
    },
    {
      "inputs": [
        {
          "internalType": "uint256",
          "name": "taskId",
          "type": "uint256"
        }
      ],
      "name": "getStatus",
      "outputs": [
        {
          "internalType": "enum Status",
          "name": "",
          "type": "uint8"
        }
      ],
      "stateMutability": "view",
      "type": "function"
    },
    {
      "inputs": [
        {
          "internalType": "uint256",
          "name": "taskId",
          "type": "uint256"
        }
      ],
      "name": "isPendingRevoke",
      "outputs": [
        {
          "internalType": "bool",
          "name": "time",
          "type": "bool"
        }
      ],
      "stateMutability": "view",
      "type": "function"
    },
    {
      "inputs": [],
      "name": "owner",
      "outputs": [
        {
          "internalType": "address",
          "name": "",
          "type": "address"
        }
      ],
      "stateMutability": "view",
      "type": "function"
    },
    {
      "inputs": [
        {
          "internalType": "uint256",
          "name": "",
          "type": "uint256"
        }
      ],
      "name": "pendingRevokeTime",
      "outputs": [
        {
          "internalType": "uint256",
          "name": "",
          "type": "uint256"
        }
      ],
      "stateMutability": "view",
      "type": "function"
    },
    {
      "inputs": [],
      "name": "renounceOwnership",
      "outputs": [],
      "stateMutability": "nonpayable",
      "type": "function"
    },
    {
      "inputs": [
        {
          "internalType": "uint256",
          "name": "taskId",
          "type": "uint256"
        }
      ],
      "name": "requestRevokeTask",
      "outputs": [],
      "stateMutability": "nonpayable",
      "type": "function"
    },
    {
      "inputs": [
        {
          "internalType": "uint256",
          "name": "taskId",
          "type": "uint256"
        }
      ],
      "name": "revokeTask",
      "outputs": [],
      "stateMutability": "nonpayable",
      "type": "function"
    },
    {
      "inputs": [
        {
          "internalType": "bytes32",
          "name": "requestId",
          "type": "bytes32"
        },
        {
          "internalType": "uint256",
          "name": "taskId",
          "type": "uint256"
        },
        {
          "internalType": "uint256",
          "name": "score",
          "type": "uint256"
        },
        {
          "internalType": "enum ResponseStatus",
          "name": "response",
          "type": "uint8"
        }
      ],
      "name": "revokeTaskCallback",
      "outputs": [],
      "stateMutability": "nonpayable",
      "type": "function"
    },
    {
      "inputs": [
        {
          "internalType": "uint256",
          "name": "feePerMille",
          "type": "uint256"
        }
      ],
      "name": "setBaseFee",
      "outputs": [],
      "stateMutability": "nonpayable",
      "type": "function"
    },
    {
      "inputs": [
        {
          "internalType": "uint256",
          "name": "time",
          "type": "uint256"
        }
      ],
      "name": "setMaxTimeWindow",
      "outputs": [],
      "stateMutability": "nonpayable",
      "type": "function"
    },
    {
      "inputs": [
        {
          "internalType": "uint256",
          "name": "term",
          "type": "uint256"
        }
      ],
      "name": "setMaxcliff",
      "outputs": [],
      "stateMutability": "nonpayable",
      "type": "function"
    },
    {
      "inputs": [
        {
          "internalType": "uint256",
          "name": "delay",
          "type": "uint256"
        }
      ],
      "name": "setPendingRevokeDelay",
      "outputs": [],
      "stateMutability": "nonpayable",
      "type": "function"
    },
    {
      "inputs": [
        {
          "internalType": "address",
          "name": "token",
          "type": "address"
        },
        {
          "internalType": "bool",
          "name": "allowed",
          "type": "bool"
        }
      ],
      "name": "setTokenWhitelisted",
      "outputs": [],
      "stateMutability": "nonpayable",
      "type": "function"
    },
    {
      "inputs": [],
      "name": "taskCount",
      "outputs": [
        {
          "internalType": "uint256",
          "name": "",
          "type": "uint256"
        }
      ],
      "stateMutability": "view",
      "type": "function"
    },
    {
      "inputs": [
        {
          "internalType": "uint256",
          "name": "",
          "type": "uint256"
        }
      ],
      "name": "tasks",
      "outputs": [
        {
          "internalType": "enum Status",
          "name": "status",
          "type": "uint8"
        },
        {
          "internalType": "address",
          "name": "sponsor",
          "type": "address"
        },
        {
          "internalType": "address",
          "name": "promoter",
          "type": "address"
        },
        {
          "internalType": "address",
          "name": "erc20Token",
          "type": "address"
        },
        {
          "internalType": "uint256",
          "name": "depositAmount",
          "type": "uint256"
        },
        {
          "internalType": "uint256",
          "name": "balance",
          "type": "uint256"
        },
        {
          "internalType": "uint256",
          "name": "startDate",
          "type": "uint256"
        },
        {
          "internalType": "uint256",
          "name": "endDate",
          "type": "uint256"
        },
        {
          "internalType": "uint256",
          "name": "cliff",
          "type": "uint256"
        },
        {
          "components": [
            {
              "internalType": "bool",
              "name": "linear",
              "type": "bool"
            },
            {
              "internalType": "uint256[]",
              "name": "x",
              "type": "uint256[]"
            },
            {
              "internalType": "uint256[]",
              "name": "y",
              "type": "uint256[]"
            }
          ],
          "internalType": "struct ScoreFnData",
          "name": "vesting",
          "type": "tuple"
        },
        {
          "internalType": "string",
          "name": "data",
          "type": "string"
        }
      ],
      "stateMutability": "view",
      "type": "function"
    },
    {
      "inputs": [
        {
          "internalType": "address",
          "name": "",
          "type": "address"
        }
      ],
      "name": "tokenWhitelist",
      "outputs": [
        {
          "internalType": "bool",
          "name": "",
          "type": "bool"
        }
      ],
      "stateMutability": "view",
      "type": "function"
    },
    {
      "inputs": [
        {
          "internalType": "address",
          "name": "newOwner",
          "type": "address"
        }
      ],
      "name": "transferOwnership",
      "outputs": [],
      "stateMutability": "nonpayable",
      "type": "function"
    },
    {
      "inputs": [],
      "name": "withdraw",
      "outputs": [],
      "stateMutability": "nonpayable",
      "type": "function"
    },
    {
      "inputs": [],
      "name": "withdrawLink",
      "outputs": [],
      "stateMutability": "nonpayable",
      "type": "function"
    },
    {
      "inputs": [
        {
          "internalType": "address",
          "name": "token",
          "type": "address"
        }
      ],
      "name": "withdrawToken",
      "outputs": [],
      "stateMutability": "nonpayable",
      "type": "function"
    }
  ],
  "bytecode": "0x60806040526001600455600880546001600160a01b031916730b9d5d9136855f6fec3c0993fee6e9ce8a2978461790557f38366465646635373865336234613435393237346162623634393836633938306009557f6434626662393836616235373465663862626337373466363965393039623363600a557f6538633637323235663365313431393162386538623565663562643563663435600b5567016345785d8a0000600c556224ea00600e556303aaac00600f556201518060105560326011556000601255348015620000d457600080fd5b50604051620052c2380380620052c2833981016040819052620000f79162000231565b60068054336001600160a01b0319918216179091556007805482166001600160a01b03858116919091179091556008546002805490931691161790556200013e33620001c2565b60005b8151811015620001b9576001601860008484815181106200017257634e487b7160e01b600052603260045260246000fd5b6020908102919091018101516001600160a01b03168252810191909152604001600020805460ff191691151591909117905580620001b0816200031c565b91505062000141565b5050506200035a565b600d80546001600160a01b038381166001600160a01b0319831681179093556040519116919082907f8be0079c531659141344cd1fd0a4f28419497f9722a3daafe3b4186f6b6457e090600090a35050565b80516001600160a01b03811681146200022c57600080fd5b919050565b6000806040838503121562000244578182fd5b6200024f8362000214565b602084810151919350906001600160401b03808211156200026e578384fd5b818601915086601f83011262000282578384fd5b81518181111562000297576200029762000344565b8060051b604051601f19603f83011681018181108582111715620002bf57620002bf62000344565b604052828152858101935084860182860187018b1015620002de578788fd5b8795505b838610156200030b57620002f68162000214565b855260019590950194938601938601620002e2565b508096505050505050509250929050565b60006000198214156200033d57634e487b7160e01b81526011600452602481fd5b5060010190565b634e487b7160e01b600052604160045260246000fd5b614f58806200036a6000396000f3fe608060405234801561001057600080fd5b50600436106102265760003560e01c806370aab8fd1161012a5780639653ed7e116100bd578063d7864cff1161008c578063f2fde38b11610071578063f2fde38b146104bf578063f4c592d3146104d2578063f8f156aa146104e557600080fd5b8063d7864cff14610499578063f2c80466146104ac57600080fd5b80639653ed7e1461046b578063b6cb58a51461047e578063b9b4ef8614610487578063c20d096c1461049057600080fd5b806389476069116100f9578063894760691461040b5780638d9776721461041e5780638da5cb5b146104485780638dc654a21461046357600080fd5b806370aab8fd146103ba578063715018a6146103cd578063753d7563146103d55780637eec20a8146103f857600080fd5b806345b7c6fc116101bd5780634ed619091161018c57806352da02eb1161017157806352da02eb146103575780635c622a0e1461036a5780635e57966d1461039a57600080fd5b80634ed61909146103315780635217e2f01461034457600080fd5b806345b7c6fc146102ef578063465efce214610302578063468606981461030b5780634ce0a2cd1461031e57600080fd5b80630c7dbbe3116101f95780630c7dbbe3146102a15780633a9c5712146102b45780633ccfd60b146102c757806344cd8092146102cf57600080fd5b8063027603b11461022b57806304d88aa71461026257806305e31fbc146102835780630b295b5914610298575b600080fd5b61024d6102393660046148db565b600090815260156020526040902054151590565b60405190151581526020015b60405180910390f35b610275610270366004614834565b6104fb565b604051908152602001610259565b61029661029136600461478d565b61070a565b005b61027560115481565b6102966102af3660046148db565b610bb2565b6102966102c236600461473b565b610d97565b610296610e1c565b6102756102dd3660046148db565b60156020526000908152604090205481565b6102756102fd36600461490b565b610f2d565b610275600f5481565b6102966103193660046148db565b611046565b61029661032c3660046148db565b6110f6565b61029661033f3660046147f6565b611155565b6102966103523660046148db565b611556565b6102966103653660046148db565b6115b5565b61038d6103783660046148db565b60009081526013602052604090205460ff1690565b6040516102599190614bf1565b6103ad6103a8366004614642565b61191f565b6040516102599190614c88565b6102966103c83660046148db565b611bef565b610296611c4e565b61024d6103e3366004614642565b60186020526000908152604090205460ff1681565b6102966104063660046148db565b611cb4565b610296610419366004614642565b611f83565b61043161042c3660046148db565b6120fd565b6040516102599b9a99989796959493929190614bff565b600d546040516001600160a01b039091168152602001610259565b6102966122fa565b61029661047936600461465c565b61242b565b61027560125481565b610275600e5481565b61027560105481565b6102966104a736600461493f565b612c37565b6102966104ba3660046148db565b612e71565b6102966104cd366004614642565b6132ac565b6102966104e03660046147f6565b61338b565b6104ed6135b7565b604051610259929190614ae3565b602082015180516000919061051290600190614e2b565b8151811061053057634e487b7160e01b600052603260045260246000fd5b6020026020010151821061057e576040830151805161055190600190614e2b565b8151811061056f57634e487b7160e01b600052603260045260246000fd5b60200260200101519050610704565b60005b82846020015182815181106105a657634e487b7160e01b600052603260045260246000fd5b602002602001015110156105c657806105be81614ea3565b915050610581565b600081156106095760408501516105de600184614e2b565b815181106105fc57634e487b7160e01b600052603260045260246000fd5b602002602001015161060c565b60005b855190915061061e5791506107049050565b60008560400151838151811061064457634e487b7160e01b600052603260045260246000fd5b60200260200101519050600083600014610693576020870151610668600186614e2b565b8151811061068657634e487b7160e01b600052603260045260246000fd5b6020026020010151610696565b60005b90506000876020015185815181106106be57634e487b7160e01b600052603260045260246000fd5b6020026020010151905081816106d49190614e2b565b6106de8389614e2b565b6106e89085614e0c565b6106f29190614d0d565b6106fc9085614cf5565b955050505050505b92915050565b60008581526005602052604090205485906001600160a01b031633146107885760405162461bcd60e51b815260206004820152602860248201527f536f75726365206d75737420626520746865206f7261636c65206f6620746865604482015267081c995c5d595cdd60c21b60648201526084015b60405180910390fd5b60008181526005602052604080822080546001600160a01b03191690555182917f7cc135e0cebb02c3480ae5d74d377283180a2601f8f644edf7987b009316c63a91a2600085815260136020526040902060018101546001600160a01b03161561080257634e487b7160e01b600052600160045260246000fd5b6001815460ff16600181111561082857634e487b7160e01b600052602160045260246000fd5b1480156108545750600183600281111561085257634e487b7160e01b600052602160045260246000fd5b145b801561088d5750600086815260166020526040908190209051610878908790614a3b565b9081526040519081900360200190205460ff16155b15610ba957600160166000888152602001908152602001600020866040516108b59190614a3b565b9081526040805160209281900383018120805460ff19169415159490941790935560008981526017909252812090916108ef908890614a3b565b90815260408051602092819003830181205460608201835260088601805460ff16151583526009870180548551818802810188019096528086526001600160a01b0390931696506000956109db95929381860193929183018282801561097457602002820191906000526020600020905b815481526020019060010190808311610960575b50505050508152602001600282018054806020026020016040519081016040528092919081815260200182805480156109cc57602002820191906000526020600020905b8154815260200190600101908083116109b8575b505050505081525050876104fb565b60008981526014602090815260408083206001600160a01b038716845290915281205491925090610a0c9083614e2b565b90508360040154811115610a21575060048301545b80846004016000828254610a359190614e2b565b909155505060008981526014602090815260408083206001600160a01b038716845290915281208390556011546103e890610a709084614e0c565b610a7a9190614d0d565b90506000610a888284614e2b565b60028701546001600160a01b0316600090815260196020526040812080549293508492909190610ab9908490614cf5565b9091555050600286015460405163a9059cbb60e01b81526001600160a01b03878116600483015260248201849052600092169063a9059cbb90604401602060405180830381600087803b158015610b0f57600080fd5b505af1158015610b23573d6000803e3d6000fd5b505050506040513d601f19601f82011682018060405250810190610b479190614771565b905080610ba25760405162461bcd60e51b8152602060048201526024808201527f455243323020546f6b656e20636f756c64206e6f74206265207472616e7366656044820152631c9c995960e21b606482015260840161077f565b5050505050505b50505050505050565b60008181526013602052604090206001815460ff166001811115610be657634e487b7160e01b600052602160045260246000fd5b14610c265760405162461bcd60e51b815260206004820152601060248201526f3a30b9b59034b9903737ba1037b832b760811b604482015260640161077f565b60018101546001600160a01b03163314610c825760405162461bcd60e51b815260206004820152601a60248201527f63616c6c6572206973206e6f74207468652070726f6d6f746572000000000000604482015260640161077f565b42816005015411158015610c9a575080600601544211155b610ce65760405162461bcd60e51b815260206004820152601c60248201527f6d75737420626520696e2076616c69642074696d652077696e646f7700000000604482015260640161077f565b610d938282600501548360060154846007015485600b018054610d0890614e6e565b80601f0160208091040260200160405190810160405280929190818152602001828054610d3490614e6e565b8015610d815780601f10610d5657610100808354040283529160200191610d81565b820191906000526020600020905b815481529060010190602001808311610d6457829003601f168201915b5050505050634ed6190960e01b61393c565b5050565b600d546001600160a01b03163314610df15760405162461bcd60e51b815260206004820181905260248201527f4f776e61626c653a2063616c6c6572206973206e6f7420746865206f776e6572604482015260640161077f565b6001600160a01b03919091166000908152601860205260409020805460ff1916911515919091179055565b600d546001600160a01b03163314610e765760405162461bcd60e51b815260206004820181905260248201527f4f776e61626c653a2063616c6c6572206973206e6f7420746865206f776e6572604482015260640161077f565b6000610e8a600d546001600160a01b031690565b6001600160a01b03164760405160006040518083038185875af1925050503d8060008114610ed4576040519150601f19603f3d011682016040523d82523d6000602084013e610ed9565b606091505b5050905080610f2a5760405162461bcd60e51b815260206004820181905260248201527f62616c616e636520636f756c64206e6f74206265207472616e73666572726564604482015260640161077f565b50565b6000838152601360209081526040808320815160608101835260088201805460ff16151582526009830180548551818802810188019096528086529395879561100c95858301939192830182828015610fa557602002820191906000526020600020905b815481526020019060010190808311610f91575b5050505050815260200160028201805480602002602001604051908101604052809291908181526020018280548015610ffd57602002820191906000526020600020905b815481526020019060010190808311610fe9575b505050505081525050856104fb565b60008781526014602090815260408083206001600160a01b038a16845290915290205490915061103c9082614e2b565b9695505050505050565b600d546001600160a01b031633146110a05760405162461bcd60e51b815260206004820181905260248201527f4f776e61626c653a2063616c6c6572206973206e6f7420746865206f776e6572604482015260640161077f565b60328111156110f15760405162461bcd60e51b815260206004820152601c60248201527f6665652063616e6e6f74206265206c6172676572207468616e20352500000000604482015260640161077f565b601155565b600d546001600160a01b031633146111505760405162461bcd60e51b815260206004820181905260248201527f4f776e61626c653a2063616c6c6572206973206e6f7420746865206f776e6572604482015260640161077f565b600f55565b60008481526005602052604090205484906001600160a01b031633146111ce5760405162461bcd60e51b815260206004820152602860248201527f536f75726365206d75737420626520746865206f7261636c65206f6620746865604482015267081c995c5d595cdd60c21b606482015260840161077f565b60008181526005602052604080822080546001600160a01b03191690555182917f7cc135e0cebb02c3480ae5d74d377283180a2601f8f644edf7987b009316c63a91a2600084815260136020526040902060018101546001600160a01b031661124757634e487b7160e01b600052600160045260246000fd5b6001815460ff16600181111561126d57634e487b7160e01b600052602160045260246000fd5b1480156112995750600183600281111561129757634e487b7160e01b600052602160045260246000fd5b145b1561154e576040805160608101825260088301805460ff1615158252600984018054845160208281028201810190965281815260009561137195949381860193909183018282801561130a57602002820191906000526020600020905b8154815260200190600101908083116112f6575b505050505081526020016002820180548060200260200160405190810160405280929190818152602001828054801561136257602002820191906000526020600020905b81548152602001906001019080831161134e575b505050505081525050866104fb565b600087815260146020908152604080832060018701546001600160a01b03168452909152812054919250906113a69083614e2b565b905082600401548111156113bb575060048201545b808360040160008282546113cf9190614e2b565b9091555050600087815260146020908152604080832060018701546001600160a01b0316845290915281208390556011546103e89061140e9084614e0c565b6114189190614d0d565b905060006114268284614e2b565b60028601546001600160a01b0316600090815260196020526040812080549293508492909190611457908490614cf5565b90915550506002850154600186015460405163a9059cbb60e01b81526001600160a01b03918216600482015260248101849052600092919091169063a9059cbb90604401602060405180830381600087803b1580156114b557600080fd5b505af11580156114c9573d6000803e3d6000fd5b505050506040513d601f19601f820116820180604052508101906114ed9190614771565b9050806115485760405162461bcd60e51b8152602060048201526024808201527f455243323020546f6b656e20636f756c64206e6f74206265207472616e7366656044820152631c9c995960e21b606482015260840161077f565b50505050505b505050505050565b600d546001600160a01b031633146115b05760405162461bcd60e51b815260206004820181905260248201527f4f776e61626c653a2063616c6c6572206973206e6f7420746865206f776e6572604482015260640161077f565b600e55565b600081815260136020526040808220815161016081019092528054829060ff1660018111156115f457634e487b7160e01b600052602160045260246000fd5b600181111561161357634e487b7160e01b600052602160045260246000fd5b815281546001600160a01b0361010091829004811660208085019190915260018501548216604080860191909152600286015490921660608086019190915260038601546080860152600486015460a0860152600586015460c0860152600686015460e08601526007860154938501939093528151928301825260088501805460ff1615158452600986018054845181850281018501909552808552610120909601959193858401939092908301828280156116ee57602002820191906000526020600020905b8154815260200190600101908083116116da575b505050505081526020016002820180548060200260200160405190810160405280929190818152602001828054801561174657602002820191906000526020600020905b815481526020019060010190808311611732575b5050505050815250508152602001600b8201805461176390614e6e565b80601f016020809104026020016040519081016040528092919081815260200182805461178f90614e6e565b80156117dc5780601f106117b1576101008083540402835291602001916117dc565b820191906000526020600020905b8154815290600101906020018083116117bf57829003601f168201915b5050505050815250509050336001600160a01b031681602001516001600160a01b03161461184c5760405162461bcd60e51b815260206004820152601960248201527f63616c6c6572206973206e6f74207468652073706f6e736f7200000000000000604482015260640161077f565b60018151600181111561186f57634e487b7160e01b600052602160045260246000fd5b146118af5760405162461bcd60e51b815260206004820152601060248201526f3a30b9b59034b9903737ba1037b832b760811b604482015260640161077f565b6000828152601560205260409020541561190b5760405162461bcd60e51b815260206004820152601660248201527f7265766f6b6520616c72656164792070656e64696e6700000000000000000000604482015260640161077f565b506000908152601560205260409020429055565b604080518082018252601081527f303132333435363738396162636465660000000000000000000000000000000060208201528151602a80825260608281019094526001600160a01b03851692916000916020820181803683370190505090507f3000000000000000000000000000000000000000000000000000000000000000816000815181106119c157634e487b7160e01b600052603260045260246000fd5b60200101906001600160f81b031916908160001a9053507f780000000000000000000000000000000000000000000000000000000000000081600181518110611a1a57634e487b7160e01b600052603260045260246000fd5b60200101906001600160f81b031916908160001a90535060005b6014811015611be65782600485611a4c84600c614cf5565b60208110611a6a57634e487b7160e01b600052603260045260246000fd5b1a60f81b6001600160f81b031916901c60f81c60ff1681518110611a9e57634e487b7160e01b600052603260045260246000fd5b01602001517fff000000000000000000000000000000000000000000000000000000000000001682611ad1836002614e0c565b611adc906002614cf5565b81518110611afa57634e487b7160e01b600052603260045260246000fd5b60200101906001600160f81b031916908160001a9053508284611b1e83600c614cf5565b60208110611b3c57634e487b7160e01b600052603260045260246000fd5b825191901a600f16908110611b6157634e487b7160e01b600052603260045260246000fd5b01602001517fff000000000000000000000000000000000000000000000000000000000000001682611b94836002614e0c565b611b9f906003614cf5565b81518110611bbd57634e487b7160e01b600052603260045260246000fd5b60200101906001600160f81b031916908160001a90535080611bde81614ea3565b915050611a34565b50949350505050565b600d546001600160a01b03163314611c495760405162461bcd60e51b815260206004820181905260248201527f4f776e61626c653a2063616c6c6572206973206e6f7420746865206f776e6572604482015260640161077f565b601055565b600d546001600160a01b03163314611ca85760405162461bcd60e51b815260206004820181905260248201527f4f776e61626c653a2063616c6c6572206973206e6f7420746865206f776e6572604482015260640161077f565b611cb26000613a3b565b565b60008181526013602052604090206001815460ff166001811115611ce857634e487b7160e01b600052602160045260246000fd5b14611d285760405162461bcd60e51b815260206004820152601060248201526f3a30b9b59034b9903737ba1037b832b760811b604482015260640161077f565b805461010090046001600160a01b0316331480611d51575060018101546001600160a01b031633145b611dc35760405162461bcd60e51b815260206004820152602260248201527f63616c6c6572206d7573742062652073706f6e736f72206f722070726f6d6f7460448201527f6572000000000000000000000000000000000000000000000000000000000000606482015260840161077f565b805461010090046001600160a01b0316331415611e7c578060050154421080611e0b57504260105482600701548360060154611dff9190614cf5565b611e099190614cf5565b105b611e7c5760405162461bcd60e51b8152602060048201526024808201527f6d75737420626520696e2076616c69642063616e63656c6c6174696f6e20706560448201527f72696f6400000000000000000000000000000000000000000000000000000000606482015260840161077f565b60048181018054600091829055835460ff1916808555600285015460405163a9059cbb60e01b81526001600160a01b0361010090930483169581019590955260248501839052919391169063a9059cbb90604401602060405180830381600087803b158015611eea57600080fd5b505af1158015611efe573d6000803e3d6000fd5b505050506040513d601f19601f82011682018060405250810190611f229190614771565b905080611f7d5760405162461bcd60e51b8152602060048201526024808201527f455243323020546f6b656e20636f756c64206e6f74206265207472616e7366656044820152631c9c995960e21b606482015260840161077f565b50505050565b600d546001600160a01b03163314611fdd5760405162461bcd60e51b815260206004820181905260248201527f4f776e61626c653a2063616c6c6572206973206e6f7420746865206f776e6572604482015260640161077f565b6001600160a01b03811660008181526019602052604081208190559063a9059cbb612010600d546001600160a01b031690565b6001600160a01b038581166000908152601960205260409081902054905160e085901b6001600160e01b03191681529290911660048301526024820152604401602060405180830381600087803b15801561206a57600080fd5b505af115801561207e573d6000803e3d6000fd5b505050506040513d601f19601f820116820180604052508101906120a29190614771565b905080610d935760405162461bcd60e51b8152602060048201526024808201527f455243323020546f6b656e20636f756c64206e6f74206265207472616e7366656044820152631c9c995960e21b606482015260840161077f565b60136020528060005260406000206000915090508060000160009054906101000a900460ff16908060000160019054906101000a90046001600160a01b0316908060010160009054906101000a90046001600160a01b0316908060020160009054906101000a90046001600160a01b031690806003015490806004015490806005015490806006015490806007015490806008016040518060600160405290816000820160009054906101000a900460ff161515151581526020016001820180548060200260200160405190810160405280929190818152602001828054801561220657602002820191906000526020600020905b8154815260200190600101908083116121f2575b505050505081526020016002820180548060200260200160405190810160405280929190818152602001828054801561225e57602002820191906000526020600020905b81548152602001906001019080831161224a575b5050505050815250509080600b01805461227790614e6e565b80601f01602080910402602001604051908101604052809291908181526020018280546122a390614e6e565b80156122f05780601f106122c5576101008083540402835291602001916122f0565b820191906000526020600020905b8154815290600101906020018083116122d357829003601f168201915b505050505090508b565b6006546001600160a01b0316331461231157600080fd5b6008546040517f70a082310000000000000000000000000000000000000000000000000000000081523060048201526000916001600160a01b0316906370a082319060240160206040518083038186803b15801561236e57600080fd5b505afa158015612382573d6000803e3d6000fd5b505050506040513d601f19601f820116820180604052508101906123a691906148f3565b60085460405163a9059cbb60e01b8152336004820152602481018390529192506001600160a01b03169063a9059cbb90604401602060405180830381600087803b1580156123f357600080fd5b505af1158015612407573d6000803e3d6000fd5b505050506040513d601f19601f82011682018060405250810190610d939190614771565b854210801561243957508587105b80156124505750600f5461244d8888614e2b565b11155b61249c5760405162461bcd60e51b815260206004820152601860248201527f696e76616c69642074696d65206672616d6520676976656e0000000000000000604482015260640161077f565b600e548511156125145760405162461bcd60e51b815260206004820152602360248201527f636c6966662063616e6e6f74206265206c6f6e676572207468616e203238206460448201527f6179730000000000000000000000000000000000000000000000000000000000606482015260840161077f565b6001600160a01b03891660009081526018602052604090205460ff1661257c5760405162461bcd60e51b815260206004820152601860248201527f746f6b656e206973206e6f742077686974656c69737465640000000000000000604482015260640161077f565b600088116125cc5760405162461bcd60e51b815260206004820152601960248201527f6465706f736974416d6f756e742063616e6e6f74206265203000000000000000604482015260640161077f565b6001600160a01b038a163314156126255760405162461bcd60e51b815260206004820152601960248201527f70726f6d6f7465722063616e6e6f742062652073656e64657200000000000000604482015260640161077f565b81518351146126765760405162461bcd60e51b815260206004820152601b60248201527f7469636b73206d75737420686176652073616d65206c656e6774680000000000604482015260640161077f565b6001600160a01b038a16612733578782600184516126949190614e2b565b815181106126b257634e487b7160e01b600052603260045260246000fd5b6020026020010151111561272e5760405162461bcd60e51b815260206004820152603160248201527f746f74616c207061796f75742063616e6e6f742062652067726561746572207460448201527f68616e206465706f736974416d6f756e74000000000000000000000000000000606482015260840161077f565b6127b6565b8782600184516127439190614e2b565b8151811061276157634e487b7160e01b600052603260045260246000fd5b6020026020010151146127b65760405162461bcd60e51b815260206004820152601960248201527f6d75737420656e6420776974682066756c6c20616d6f756e7400000000000000604482015260640161077f565b6001835111156128ee5760015b83518110156128ec578381815181106127ec57634e487b7160e01b600052603260045260246000fd5b6020026020010151846001836128029190614e2b565b8151811061282057634e487b7160e01b600052603260045260246000fd5b602002602001015110801561288e575082818151811061285057634e487b7160e01b600052603260045260246000fd5b6020026020010151836001836128669190614e2b565b8151811061288457634e487b7160e01b600052603260045260246000fd5b6020026020010151105b6128da5760405162461bcd60e51b815260206004820152601860248201527f7469636b73206d75737420626520696e6372656173696e670000000000000000604482015260640161077f565b806128e481614ea3565b9150506127c3565b505b6040517f23b872dd000000000000000000000000000000000000000000000000000000008152336004820152306024820152604481018990526000906001600160a01b038b16906323b872dd90606401602060405180830381600087803b15801561295857600080fd5b505af115801561296c573d6000803e3d6000fd5b505050506040513d601f19601f820116820180604052508101906129909190614771565b9050806129eb5760405162461bcd60e51b8152602060048201526024808201527f455243323020546f6b656e20636f756c64206e6f74206265207472616e7366656044820152631c9c995960e21b606482015260840161077f565b60128054600091826129fc83614ea3565b9091555060408051606081018252881515815260208101889052808201879052815161016081019092529192508060018152602001336001600160a01b031681526020018e6001600160a01b031681526020018d6001600160a01b031681526020018c81526020018c81526020018b81526020018a8152602001898152602001828152602001858152506013600084815260200190815260200160002060008201518160000160006101000a81548160ff02191690836001811115612ad157634e487b7160e01b600052602160045260246000fd5b021790555060208281015182546001600160a01b039182166101009081027fffffffffffffffffffffff0000000000000000000000000000000000000000ff90921691909117845560408501516001850180549184166001600160a01b03199283161790556060860151600286018054919094169116179091556080840151600384015560a0840151600484015560c0840151600584015560e084015160068401558301516007830155610120830151805160088401805491151560ff1990921691909117815581830151805192939192612bb292600987019201906143b1565b5060408201518051612bce9160028401916020909101906143b1565b5050506101408201518051612bed91600b8401916020909101906143fc565b50506040516001600160a01b038f169150339084907f2454c22dc684ff5512045882a113101049fde511c581e351116949e9a2ed763790600090a450505050505050505050505050565b60008281526013602052604090206001815460ff166001811115612c6b57634e487b7160e01b600052602160045260246000fd5b14612cab5760405162461bcd60e51b815260206004820152601060248201526f3a30b9b59034b9903737ba1037b832b760811b604482015260640161077f565b60018101546001600160a01b031615612d065760405162461bcd60e51b815260206004820152601260248201527f7461736b206973206e6f74207075626c69630000000000000000000000000000604482015260640161077f565b42816005015411158015612d1e575080600601544211155b612d6a5760405162461bcd60e51b815260206004820152601c60248201527f6d75737420626520696e2076616c69642074696d652077696e646f7700000000604482015260640161077f565b6000816004015411612dbe5760405162461bcd60e51b815260206004820152601d60248201527f7461736b20686173206e6f2062616c616e63652072656d61696e696e67000000604482015260640161077f565b612e6c8382600501548360060154846007015485600b018054612de090614e6e565b80601f0160208091040260200160405190810160405280929190818152602001828054612e0c90614e6e565b8015612e595780601f10612e2e57610100808354040283529160200191612e59565b820191906000526020600020905b815481529060010190602001808311612e3c57829003601f168201915b5050505050876305e31fbc60e01b613a8d565b505050565b600081815260136020526040808220815161016081019092528054829060ff166001811115612eb057634e487b7160e01b600052602160045260246000fd5b6001811115612ecf57634e487b7160e01b600052602160045260246000fd5b815281546001600160a01b0361010091829004811660208085019190915260018501548216604080860191909152600286015490921660608086019190915260038601546080860152600486015460a0860152600586015460c0860152600686015460e08601526007860154938501939093528151928301825260088501805460ff161515845260098601805484518185028101850190955280855261012090960195919385840193909290830182828015612faa57602002820191906000526020600020905b815481526020019060010190808311612f96575b505050505081526020016002820180548060200260200160405190810160405280929190818152602001828054801561300257602002820191906000526020600020905b815481526020019060010190808311612fee575b5050505050815250508152602001600b8201805461301f90614e6e565b80601f016020809104026020016040519081016040528092919081815260200182805461304b90614e6e565b80156130985780601f1061306d57610100808354040283529160200191613098565b820191906000526020600020905b81548152906001019060200180831161307b57829003601f168201915b5050505050815250509050336001600160a01b031681602001516001600160a01b0316146131085760405162461bcd60e51b815260206004820152601960248201527f63616c6c6572206973206e6f74207468652073706f6e736f7200000000000000604482015260640161077f565b60018151600181111561312b57634e487b7160e01b600052602160045260246000fd5b1461316b5760405162461bcd60e51b815260206004820152601060248201526f3a30b9b59034b9903737ba1037b832b760811b604482015260640161077f565b6000828152601560205260409020546131c65760405162461bcd60e51b815260206004820152601660248201527f7265766f6b65206d7573742062652070656e64696e6700000000000000000000604482015260640161077f565b60105460008381526015602052604090205442916131e391614cf5565b11156132575760405162461bcd60e51b815260206004820152602260248201527f6d757374207761697420666f72207265766f6b652064656c617920746f20706160448201527f7373000000000000000000000000000000000000000000000000000000000000606482015260840161077f565b60008281526015602052604081205560c081015160e0820151610100830151610140840151610d93938693909290917ff4c592d30000000000000000000000000000000000000000000000000000000061393c565b600d546001600160a01b031633146133065760405162461bcd60e51b815260206004820181905260248201527f4f776e61626c653a2063616c6c6572206973206e6f7420746865206f776e6572604482015260640161077f565b6001600160a01b0381166133825760405162461bcd60e51b815260206004820152602660248201527f4f776e61626c653a206e6577206f776e657220697320746865207a65726f206160448201527f6464726573730000000000000000000000000000000000000000000000000000606482015260840161077f565b610f2a81613a3b565b60008481526005602052604090205484906001600160a01b031633146134045760405162461bcd60e51b815260206004820152602860248201527f536f75726365206d75737420626520746865206f7261636c65206f6620746865604482015267081c995c5d595cdd60c21b606482015260840161077f565b60008181526005602052604080822080546001600160a01b03191690555182917f7cc135e0cebb02c3480ae5d74d377283180a2601f8f644edf7987b009316c63a91a260008481526013602052604090206001815460ff16600181111561347b57634e487b7160e01b600052602160045260246000fd5b1480156134a7575060008360028111156134a557634e487b7160e01b600052602160045260246000fd5b145b1561154e5760048181018054600091829055835460ff1916808555600285015460405163a9059cbb60e01b81526001600160a01b0361010090930483169581019590955260248501839052919391169063a9059cbb90604401602060405180830381600087803b15801561351a57600080fd5b505af115801561352e573d6000803e3d6000fd5b505050506040513d601f19601f820116820180604052508101906135529190614771565b9050806135ad5760405162461bcd60e51b8152602060048201526024808201527f455243323020546f6b656e20636f756c64206e6f74206265207472616e7366656044820152631c9c995960e21b606482015260840161077f565b5050505050505050565b606080600060125467ffffffffffffffff8111156135e557634e487b7160e01b600052604160045260246000fd5b60405190808252806020026020018201604052801561361e57816020015b61360b61446f565b8152602001906001900390816136035790505b509050600060125467ffffffffffffffff81111561364c57634e487b7160e01b600052604160045260246000fd5b604051908082528060200260200182016040528015613675578160200160208202803683370190505b50905060005b6012548110156139325760008181526013602052604090819020815161016081019092528054829060ff1660018111156136c557634e487b7160e01b600052602160045260246000fd5b60018111156136e457634e487b7160e01b600052602160045260246000fd5b815281546001600160a01b0361010091829004811660208085019190915260018501548216604080860191909152600286015490921660608086019190915260038601546080860152600486015460a0860152600586015460c0860152600686015460e08601526007860154938501939093528151928301825260088501805460ff1615158452600986018054845181850281018501909552808552610120909601959193858401939092908301828280156137bf57602002820191906000526020600020905b8154815260200190600101908083116137ab575b505050505081526020016002820180548060200260200160405190810160405280929190818152602001828054801561381757602002820191906000526020600020905b815481526020019060010190808311613803575b5050505050815250508152602001600b8201805461383490614e6e565b80601f016020809104026020016040519081016040528092919081815260200182805461386090614e6e565b80156138ad5780601f10613882576101008083540402835291602001916138ad565b820191906000526020600020905b81548152906001019060200180831161389057829003601f168201915b5050505050815250508382815181106138d657634e487b7160e01b600052603260045260246000fd5b6020026020010181905250601560008281526020019081526020016000205482828151811061391557634e487b7160e01b600052603260045260246000fd5b60209081029190910101528061392a81614ea3565b91505061367b565b5090939092509050565b600061394b6009543084613c21565b6040805180820190915260068152651d185cdad25960d21b602082015290915061397790829089613cb2565b60408051808201909152600981526873746172744461746560b81b60208201526139a390829088613cb2565b604080518082019091526007815266656e644461746560c81b60208201526139cd90829087613cb2565b60408051808201909152600581526431b634b33360d91b60208201526139f590829086613cb2565b6040805180820190915260088152677461736b4461746160c01b6020820152613a2090829085613cd0565b600754600c546135ad916001600160a01b0316908390613cee565b600d80546001600160a01b038381166001600160a01b0319831681179093556040519116919082907f8be0079c531659141344cd1fd0a4f28419497f9722a3daafe3b4186f6b6457e090600090a35050565b6000613a9c600a543084613c21565b6040805180820190915260068152651d185cdad25960d21b6020820152909150613ac89082908a613cb2565b60408051808201909152600981526873746172744461746560b81b6020820152613af490829089613cb2565b604080518082019091526007815266656e644461746560c81b6020820152613b1e90829088613cb2565b60408051808201909152600581526431b634b33360d91b6020820152613b4690829087613cb2565b613b906040518060400160405280600b81526020017f7573657241646472657373000000000000000000000000000000000000000000815250613b883361191f565b839190613cd0565b60408051808201909152600681527f75736572496400000000000000000000000000000000000000000000000000006020820152613bd090829085613cd0565b6040805180820190915260088152677461736b4461746160c01b6020820152613bfb90829086613cd0565b600754600c54613c16916001600160a01b0316908390613cee565b505050505050505050565b613c5f6040805160a0810182526000808252602080830182905282840182905260608084018390528451808601909552845283015290608082015290565b613c9d6040805160a0810182526000808252602080830182905282840182905260608084018390528451808601909552845283015290608082015290565b613ca981868686613d26565b95945050505050565b6080830151613cc19083613d99565b6080830151612e6c9082613db0565b6080830151613cdf9083613d99565b6080830151612e6c9082613d99565b6000613d1e84848460017f4042994600000000000000000000000000000000000000000000000000000000613dbc565b949350505050565b613d646040805160a0810182526000808252602080830182905282840182905260608084018390528451808601909552845283015290608082015290565b613d748560800151610100614010565b50509183526001600160a01b031660208301526001600160e01b031916604082015290565b613da68260038351614075565b612e6c8282614143565b610d9382600083614075565b6004546040516bffffffffffffffffffffffff193060601b166020820152603481019190915260009060540160408051808303601f19018152918152815160209283012060045460608901526000818152600590935281832080546001600160a01b0319166001600160a01b038b16179055905190925082917fb5e6e01e79f91267dc17b4e6314d5d4d03593d2ceee0fbb452b750bd70ea5af991a2600082600080886000015189602001518a604001518b606001518a8d6080015160000151604051602401613e93989796959493929190614a57565b60408051601f198184030181529181526020820180517bffffffffffffffffffffffffffffffffffffffffffffffffffffffff166001600160e01b03199094169390931790925260025491517f4000aea00000000000000000000000000000000000000000000000000000000081529092506001600160a01b0390911690634000aea090613f29908a9089908690600401614abb565b602060405180830381600087803b158015613f4357600080fd5b505af1158015613f57573d6000803e3d6000fd5b505050506040513d601f19601f82011682018060405250810190613f7b9190614771565b613fed5760405162461bcd60e51b815260206004820152602360248201527f756e61626c6520746f207472616e73666572416e6443616c6c20746f206f726160448201527f636c650000000000000000000000000000000000000000000000000000000000606482015260840161077f565b6001600460008282546140009190614cf5565b9091555091979650505050505050565b604080518082019091526060815260006020820152614030602083614ebe565b1561405857614040602083614ebe565b61404b906020614e2b565b6140559083614cf5565b91505b506020828101829052604080518085526000815290920101905290565b6017811161409057611f7d8360e0600585901b168317614171565b60ff81116140ba576140ad836018611fe0600586901b1617614171565b50611f7d83826001614196565b61ffff81116140e5576140d8836019611fe0600586901b1617614171565b50611f7d83826002614196565b63ffffffff81116141125761410583601a611fe0600586901b1617614171565b50611f7d83826004614196565b67ffffffffffffffff8111612e6c5761413683601b611fe0600586901b1617614171565b50611f7d83826008614196565b60408051808201909152606081526000602082015261416a838460000151518485516141bc565b9392505050565b60408051808201909152606081526000602082015261416a83846000015151846142a6565b604080518082019091526060815260006020820152613d1e848560000151518585614302565b60408051808201909152606081526000602082015282518211156141df57600080fd5b60208501516141ee8386614cf5565b111561422157614221856142118760200151878661420c9190614cf5565b614383565b61421c906002614e0c565b61439a565b6000808651805187602083010193508088870111156142405787860182525b505050602084015b60208410614280578051825261425f602083614cf5565b915061426c602082614cf5565b9050614279602085614e2b565b9350614248565b51815160001960208690036101000a019081169019919091161790525083949350505050565b604080518082019091526060815260006020820152836020015183106142db576142db848560200151600261421c9190614e0c565b8351805160208583010184815350808514156142f8576001810182525b5093949350505050565b60408051808201909152606081526000602082015260208501516143268584614cf5565b111561433a5761433a856142118685614cf5565b6000600161434a84610100614d64565b6143549190614e2b565b90508551838682010185831982511617815250805184870111156143785783860181525b509495945050505050565b600081831115614394575081610704565b50919050565b81516143a68383614010565b50611f7d8382614143565b8280548282559060005260206000209081019282156143ec579160200282015b828111156143ec5782518255916020019190600101906143d1565b506143f8929150614509565b5090565b82805461440890614e6e565b90600052602060002090601f01602090048101928261442a57600085556143ec565b82601f1061444357805160ff19168380011785556143ec565b828001600101855582156143ec57918201828111156143ec5782518255916020019190600101906143d1565b604080516101608101909152806000815260200160006001600160a01b0316815260200160006001600160a01b0316815260200160006001600160a01b0316815260200160008152602001600081526020016000815260200160008152602001600081526020016144fc604051806060016040528060001515815260200160608152602001606081525090565b8152602001606081525090565b5b808211156143f8576000815560010161450a565b80356001600160a01b038116811461453557600080fd5b919050565b600082601f83011261454a578081fd5b8135602067ffffffffffffffff82111561456657614566614efe565b8160051b614575828201614cc4565b83815282810190868401838801850189101561458f578687fd5b8693505b858410156145b1578035835260019390930192918401918401614593565b50979650505050505050565b803561453581614f14565b80356003811061453557600080fd5b600082601f8301126145e7578081fd5b813567ffffffffffffffff81111561460157614601614efe565b614614601f8201601f1916602001614cc4565b818152846020838601011115614628578283fd5b816020850160208301379081016020019190915292915050565b600060208284031215614653578081fd5b61416a8261451e565b6000806000806000806000806000806101408b8d03121561467b578586fd5b6146848b61451e565b995061469260208c0161451e565b985060408b0135975060608b0135965060808b0135955060a08b013594506146bc60c08c016145bd565b935060e08b013567ffffffffffffffff808211156146d8578485fd5b6146e48e838f0161453a565b94506101008d01359150808211156146fa578384fd5b6147068e838f0161453a565b93506101208d013591508082111561471c578283fd5b506147298d828e016145d7565b9150509295989b9194979a5092959850565b6000806040838503121561474d578182fd5b6147568361451e565b9150602083013561476681614f14565b809150509250929050565b600060208284031215614782578081fd5b815161416a81614f14565b600080600080600060a086880312156147a4578081fd5b8535945060208601359350604086013567ffffffffffffffff8111156147c8578182fd5b6147d4888289016145d7565b935050606086013591506147ea608087016145c8565b90509295509295909350565b6000806000806080858703121561480b578384fd5b843593506020850135925060408501359150614829606086016145c8565b905092959194509250565b60008060408385031215614846578182fd5b823567ffffffffffffffff8082111561485d578384fd5b9084019060608287031215614870578384fd5b614878614c9b565b823561488381614f14565b8152602083013582811115614896578586fd5b6148a28882860161453a565b6020830152506040830135828111156148b9578586fd5b6148c58882860161453a565b6040830152509660209590950135955050505050565b6000602082840312156148ec578081fd5b5035919050565b600060208284031215614904578081fd5b5051919050565b60008060006060848603121561491f578081fd5b8335925061492f6020850161451e565b9150604084013590509250925092565b60008060408385031215614951578182fd5b82359150602083013567ffffffffffffffff81111561496e578182fd5b61497a858286016145d7565b9150509250929050565b6000815180845260208085019450808401835b8381101561437857815187529582019590820190600101614997565b600081518084526149cb816020860160208601614e42565b601f01601f19169290920160200192915050565b600281106149fd57634e487b7160e01b600052602160045260246000fd5b9052565b8051151582526000602082015160606020850152614a226060850182614984565b905060408301518482036040860152613ca98282614984565b60008251614a4d818460208701614e42565b9190910192915050565b60006101006001600160a01b03808c1684528a60208501528960408501528089166060850152506001600160e01b0319871660808401528560a08401528460c08401528060e0840152614aac818401856149b3565b9b9a5050505050505050505050565b6001600160a01b0384168152826020820152606060408201526000613ca960608301846149b3565b60006040808301818452808651808352606092508286019150828160051b8701016020808a01875b84811015614bd157605f198a85030186528151610160614b2c8683516149df565b848201516001600160a01b03908116878701528a83015181168b8801528983015116898701526080808301519087015260a0808301519087015260c0808301519087015260e08083015190870152610100808301519087015261012080830151818801839052614b9e83890182614a01565b925050506101408083015192508682038188015250614bbd81836149b3565b978501979550505090820190600101614b0b565b505087820390880152614be48189614984565b9998505050505050505050565b6020810161070482846149df565b6000610160614c0e838f6149df565b6001600160a01b03808e166020850152808d166040850152808c166060850152508960808401528860a08401528760c08401528660e08401528561010084015280610120840152614c6181840186614a01565b9050828103610140840152614c7681856149b3565b9e9d5050505050505050505050505050565b60208152600061416a60208301846149b3565b6040516060810167ffffffffffffffff81118282101715614cbe57614cbe614efe565b60405290565b604051601f8201601f1916810167ffffffffffffffff81118282101715614ced57614ced614efe565b604052919050565b60008219821115614d0857614d08614ed2565b500190565b600082614d1c57614d1c614ee8565b500490565b600181815b80851115614d5c578160001904821115614d4257614d42614ed2565b80851615614d4f57918102915b93841c9390800290614d26565b509250929050565b600061416a8383600082614d7a57506001610704565b81614d8757506000610704565b8160018114614d9d5760028114614da757614dc3565b6001915050610704565b60ff841115614db857614db8614ed2565b50506001821b610704565b5060208310610133831016604e8410600b8410161715614de6575081810a610704565b614df08383614d21565b8060001904821115614e0457614e04614ed2565b029392505050565b6000816000190483118215151615614e2657614e26614ed2565b500290565b600082821015614e3d57614e3d614ed2565b500390565b60005b83811015614e5d578181015183820152602001614e45565b83811115611f7d5750506000910152565b600181811c90821680614e8257607f821691505b6020821081141561439457634e487b7160e01b600052602260045260246000fd5b6000600019821415614eb757614eb7614ed2565b5060010190565b600082614ecd57614ecd614ee8565b500690565b634e487b7160e01b600052601160045260246000fd5b634e487b7160e01b600052601260045260246000fd5b634e487b7160e01b600052604160045260246000fd5b8015158114610f2a57600080fdfea26469706673582212203fad12953492afec4d49bcd65f5419fdd173fedf4fd0b524c7e527d1933a9a2e64736f6c63430008040033",
  "linkReferences": {},
  "deployedLinkReferences": {}
}